:020000040800F2
:1000000048050020B1010008D31300086112000860
:10001000D1130008BD0200083917000800000000D5
:10002000000000000000000000000000D7130008DE
:10003000BF02000800000000D5130008D913000813
:10004000CB010008CB010008CB010008CB01000860
:10005000CB010008CB010008CB010008CB01000850
:10006000CB010008CB010008CB010008CB01000840
:10007000CB010008CB010008CB010008CB01000830
:10008000CB010008CB010008CB01000800000000F4
:10009000000000000000000000000000CB0100088C
:1000A000CB010008CB010008CB010008CB01000800
:1000B000CB010008CB010008CB010008CB010008F0
:1000C000CB010008CB010008CB010008CB010008E0
:1000D000CB01000821170008CB0100080000000038
:1000E000CB010008CB010008CB0100080000000094
:1000F000000000000000000000000000CB0100082C
:1001000000000000CB010008CB010008CB01000873
:1001100000000000000000000000000000000000DF
:10012000CB010008CB010008CB010008CB0100087F
:10013000CB010008000000000000000000000000EB
:10014000000000000000000000000000CB010008DB
:10015000CB010008CB010008CB0100082D170008D7
:10016000CB010008CB0100080000000000000000E7
:10017000000000000000000000000000000000007F
:1001800000000000CB01000800000000000000009B
:10019000CB010008CB010008DFF810D000F07CF89C
:1001A00000480047C5170008AFF30080480500204D
:1001B0000648804706480047FEE7FEE7FEE7FEE701
:1001C000FEE7FEE7FEE7FEE7FEE7FEE76D14000848
:1001D000990100082DE9F05F0546002092469B46F4
:1001E00088460646814640241BE02846414647464D
:1001F000224600F041F853465A46C01A914110D3A6
:1002000011461846224600F028F82D1A67EB01081F
:100210004F4622460120002100F01FF817EB00098D
:100220004E41201EA4F10104DFDC484631462A4637
:100230004346BDE8F09FD2B201E000F8012B491E11
:10024000FBD270470022F6E710B513460A46044673
:100250001946FFF7F0FF204610BD202A04DB203AA4
:1002600000FA02F1002070479140C2F1200320FA09
:1002700003F3194390407047202A04DB203A21FA07
:1002800002F00021704721FA02F3D040C2F12002AF
:100290009140084319467047064C074D06E0E06858
:1002A00040F0010394E8070098471034AC42F6D3BD
:1002B000FFF776FF1818000838180008FEE77047A7
:1002C00072B6FEE72DE9F0410446876D00F02EF985
:1002D000054694F835000026022806D08020606587
:1002E00084F834600120BDE8F0812068016821F0C5
:1002F000160101602068416921F080014161206C94
:1003000008B9A06C20B12068016821F008010160E3
:100310002068016821F0010101600CE000F006F99D
:10032000401B052807D920206065032084F835008C
:1003300084F83460D7E720680068C007EED194F8ED
:100340005C103F208840B860012084F8350084F8B4
:1003500034600020C7E790F83510022903D08021CF
:10036000416501207047052180F83510006801685B
:1003700021F0010101600020704700002DE9F84FD5
:10038000DFF87C910022A9F1040B03274FF00F0C3A
:1003900009F1040AABF1040E01250B6895402B40CE
:1003A000AB426ED10C7904F00304012C01D0022C75
:1003B00015D18668540007FA04F826EA0806D1F831
:1003C0000C8008FA04F848EA0608C0F80880446877
:1003D000AC430D79C5F300159540254345600C7974
:1003E000E443A40708D0C568540007FA04F6B543EF
:1003F0008E68A6402E43C6600C7904F00304022CDC
:1004000011D1D40800EB8406356A5407E40E0CFAC7
:1004100004F825EA0805D1F8108008FA04F848EA3B
:100420000508C6F820800568540007FA04F6B543AD
:100430000E7906F00306A6402E4306604C6814F4BD
:10044000403F57D02F4C256845F4804525602468EF
:1004500022F0030504F4804400942B4C05EB0408BF
:10046000D8F808589407260F0CFA06F4A543274C31
:10047000A04201D1002415E0254CA04202D1012464
:1004800010E037E0234CA04201D102240AE0224CC4
:10049000A04201D1032405E0204CA04201D1042454
:1004A00000E00724B4402C43C8F80848D9F80040BD
:1004B0004D464E689C43F60200D51C432C60DAF88A
:1004C000004055464E689C43B60200D51C432C6044
:1004D000DBF800405D464E689C43B60300D51C43E4
:1004E0002C60DEF8004075464E689C43F60300D54C
:1004F0001C432C60521C102AFFF44EAFBDE8F88F4D
:10050000083C0140443802400030014000000240F5
:100510000004024000080240000C024000100240AB
:100520000AB1816170470904FBE700000148806857
:10053000704700000000002070B5040025D094F83A
:100540003D00002520B984F83C50204600F0B8F862
:10055000242084F83D002068016821F00101016039
:100560002068016841F4004101602068016821F4BD
:100570000041016000F03CFA4D4B6168994201D89E
:100580004C4900E04C49884201D2012070BD4B49E2
:100590002268B0FBF1F1566826F03F060E43566024
:1005A00062689A4206D94FF4967251434FF47A72B8
:1005B000B1FBF2F12268491C166A26F03F0631436E
:1005C00011626168994210D84900401EB0FBF1F2F7
:1005D000521CC2F30B02042A01D2042022E0B0FB19
:1005E000F1F0401CC0F30B001CE0A268F2B301EB79
:1005F000C10303EB0116431EB3FBF6F35B1C43F48C
:1006000080431B0549D092B301EBC10202EB0111FB
:10061000401EB0FBF1F0401CC0F30B0040F48040E2
:1006200040F400402168CA694CF6FF739A431043B6
:10063000C861D4E9071001432068026822F0C002B3
:1006400011430160D4E9030101432068826848F244
:10065000FF339A4311438160D4E9051001432068B8
:10066000C26822F0FF021143C16001E00EE016E013
:100670002068016841F0010101602564202084F8B0
:100680003D00256384F83E50002070BD01EB41061B
:10069000431EB3FBF6F35B1CB3E70120C2E701EB9B
:1006A0004101401EB0FBF1F0401CC0F30B00B7E766
:1006B000A086010080841E0000093D0040420F001A
:1006C0002DE9F04186B0044614216846FFF7BAFDD3
:1006D00021682A4CDFF8A0C00025284A12260327EB
:1006E000042327481034614518D1116841F00201F4
:1006F00011601168029501F002010591C021CDE958
:100700000016CDE903736946FFF738FE206840F410
:1007100000102060206800F4001029E0DFF864C0B9
:10072000614526D1116841F00201116011680295FE
:1007300001F0020105914FF48061CDE90016CDE989
:10074000037369468046FFF719FE4FF40070CDE948
:10075000000602950920CDE9037069464046FFF77F
:100760000DFE206840F480002060206800F48000C6
:10077000059006B0BDE8F0810054004030380240DA
:100780000004024000580040024881680278114489
:1007900081607047000000200B4810B5016841F4EB
:1007A00000710160016841F480610160016841F4F9
:1007B00080710160032000F06FF80F2000F006F850
:1007C00000F024F8002010BD003C024070B50D4D33
:1007D00004464FF47A712878B1FBF0F00A490968B1
:1007E000B1FBF0F000F002FB48B9102C07D2002258
:1007F0002146501E00F030F800206C6070BD0120D2
:1008000070BD0000000000200C0000200A4808B560
:10081000016841F480410160006800F4804000906C
:100820000548001F016841F080510160006800F038
:100830008050009008BD000044380240002809DBC9
:1008400000F01F02012191404009800000F1E020EA
:10085000C0F8001170470000F0B40E4B1B68C3F3E2
:100860000223C3F10704042C00D904241D1D072D05
:1008700001D2002300E0DB1E012606FA04F56D1EFE
:100880000D409D409E40761E164045EA0601F0BC94
:1008900000F05CBF0CED00E0064A00F007011068B4
:1008A0004FF6FF03184040EA012003490843106057
:1008B000704700000CED00E00000FA052DE9F0475C
:1008C0000D46040065D0DFF81491D9F80000EFB2AE
:1008D00000F00700A84207D289F80070D9F800009C
:1008E00000F00700A84254D120683D4E810712D580
:1008F000400703D5306840F4E050306020780007AE
:1009000003D5306840F4604030603068A16820F062
:10091000F000084330602078C0072DD0304960686F
:100920000839012812D0022813D0032811D00968F1
:10093000890700292DDA316821F003010143316074
:10094000FFF7F4FD804641F2883A0EE0096889031A
:10095000EFE709688901ECE7FFF7E8FDA0EB080184
:10096000514502D90320BDE8F0873068616800F086
:100970000C00B0EB810FEFD1D9F80010484601F020
:100980000701A94207D90770006800F00700A842D4
:1009900001D00120E7E72078400705D53068E168FD
:1009A00020F4E050084330602078000706D5306816
:1009B000216920F4604040EAC100306000F038F85E
:1009C0003168084AC1F30311515CC8400649086008
:1009D00006480068FFF7FAFE0020C4E7003C02402A
:1009E00008380240001800080C0000200400002015
:1009F0000448054900680968044AC1F38221515C32
:100A0000C84070470C000020083802401018000849
:100A10000448054900680968044AC1F34231515C41
:100A2000C84070470C000020083802401018000829
:100A3000154810B5006810F00C01144813D0144B81
:100A400004290FD008290ED10F4C241F216801F072
:100A50003F022168490207D52068C0F38810A0FB37
:100A6000030106E0184610BD2168C1F38811A1FBFF
:100A700000010023FFF7AEFB2168C1F30141491CCF
:100A80004900B0FBF1F010BD083802400024F4002A
:100A900040787D012DE9F84F040075D02078DFF80B
:100AA00038A3C007AAF1040548D00AF10400016880
:100AB000C1F38101012908D00068C0F38100022838
:100AC0000AD1DAF80000400206D52868800335D53F
:100AD00060680028E1D031E06068B0F5803F10D058
:100AE000B0F5A02F286810D020F480302860286846
:100AF00020F4802028606068A0B1FFF717FD06464B
:100B00000CE0286840F48030F4E740F4802028604E
:100B1000F7E7FFF70BFD801B642871D82868800376
:100B2000F7D50BE0FFF702FD064604E0FFF7FEFCF9
:100B3000801B6428F1D828688003F7D42078DFF878
:100B40009C9280074FF0000B3DD5A348001D016823
:100B500011F00C0F08D00068C0F3810002280AD100
:100B6000DAF80000400206D42868800715D5E0684E
:100B7000012809D111E0E068B8B10120C9F80000EE
:100B8000FFF7D4FC064605E022E1FFF7CFFC801B0F
:100B90000228C2D828688007F7D52868216920F084
:100BA000F80040EAC10028600DE0C9F800B0FFF786
:100BB000BDFC064604E0FFF7B9FC801B02281FD8E5
:100BC00028688007F7D42078000722D5824F844810
:100BD0006169703771B101210160FFF7A7FC06461A
:100BE00004E0FFF7A3FC801B022809D838688007BF
:100BF000F7D50EE0C0F800B0FFF798FC064605E018
:100C000082E0FFF793FC801B02287DD838688007BC
:100C1000F7D42078400765D56F484FF000083C3086
:100C20000068C0000BD46C483C30016841F0805132
:100C3000016000684FF0010800F080500090694F9B
:100C40003868C0050FD4386840F480703860FFF70A
:100C50006DFC064604E0FFF769FC801B022853D8B0
:100C60003868C005F7D55C4FA0686C3701280FD0F5
:100C70000528386810D020F001003860386820F06E
:100C800004003860A068B0B1FFF750FC06460EE0E3
:100C9000386840F00100F4E740F004003860F7E7FE
:100CA000FFF744FC811B41F28830814263D83868E9
:100CB0008007F5D50DE0FFF739FC064606E0FFF7A3
:100CC00035FC811B41F28830814254D83868800756
:100CD000F5D4B8F1000F05D03F483C30016821F051
:100CE00080510160A069B8B33B49091D0968C1F38F
:100CF0008101022946D00228584606D0C9F8600072
:100D0000FFF714FC044639E035E04F46C9F86000AF
:100D1000FFF70CFC064604E0FFF708FC801B0228E6
:100D200029D828688001F7D4D4E907010843A16ACB
:100D30002D4A490802EB0141626A41EA82110843E7
:100D400094F82C1040EA0161CAF8001001203866BE
:100D5000FFF7ECFB044605E03CE0FFF7E7FB001B78
:100D6000022808D828688001F7D533E0FFF7DEFBBA
:100D7000001B022802D90320BDE8F88F28688001F3
:100D8000F4D427E00128F7D0DAF80000E26900F493
:100D9000800191421CD1226A00F03F01914217D19B
:100DA00047F6C071626A0140B1EB821F10D1A26A9E
:100DB0004FF0FF3300F4403103EB5202B1EB024F2E
:100DC00006D194F82C1000F07060B0EB016F01D0E8
:100DD0000120D1E70020CFE704380240000047425D
:100DE000800E4742007000400000FFFF10B5401E1B
:100DF000B0F1807F01D3012010BD4FF0E02460618D
:100E00000F21601700F0A2FC0020A06107202061E4
:100E1000002010BD70477047F8B5016804460868A7
:100E2000CA684B6910F00F0F4FF0000559D003F05E
:100E3000010602F49077374365D0C10705D0D1058C
:100E400003D5216C41F001012164410705D5D90783
:100E500003D0216C41F002012164810705D5D90737
:100E600003D0216C41F004012164010707D502F091
:100E70002001314303D0216C41F008012164216C31
:100E800000293AD0800604D5900602D5204600F00D
:100E900024FB20684069216CC0F38010090700D44E
:100EA00060B3204600F0F2FA20684069400621D580
:100EB0002068143050E8001F21F0400140E8001283
:100EC000002AF5D1A06BA8B16C490165A06BFFF7B2
:100ED00042FA002811D0A06B016D01B0BDE8F040CE
:100EE000084783060FD593060DD52046BDE8F84088
:100EF00000F0F3BA2046FFF78EFFF8BD2046FFF75B
:100F00008AFF2564F8BD266B2023012E79D1C60601
:100F100077D5D60675D508684868009048694006B8
:100F200040D5A16B086840680004000CEAD0A28D8F
:100F30008242E7D9E085C869B0F5807F2DD020686E
:100F40000C3050E8001F21F4807140E80012002AA4
:100F5000F5D12068143050E8001F21F0010140E86D
:100F60000012002AF5D12068143050E8001F21F04B
:100F7000400140E80012002AF5D184F83E30256394
:100F800020680C3050E8001F21F0100140E80012EA
:100F9000002AF5D1A06BFFF795F9A08DE18D401ADD
:100FA00081B229E0A08DE18D401A81B2E08D002848
:100FB000A8D00029A6D020680C3050E8002F22F4D9
:100FC000907240E80026002EF5D12068143050E8D9
:100FD000002F22F0010240E80026002EF5D184F80F
:100FE0003E30256320680C3050E8002F22F01002BC
:100FF00040E80023002BF5D12046FFF70BFFF8BD9A
:10100000FFE705062BD5150629D594F83D002128C4
:10101000F5D1A068B0F5805F01D12069B0B1206A38
:10102000411C2162216800784860E08C401E000469
:10103000000CE084E3D12068C16821F08001C16028
:101040002068C16841F04001C160D8E7206A00888B
:10105000C0F308004860206A801C2062E5E7400673
:10106000CDD55006CBD5CA68204622F04002CA60D2
:1010700084F83D3000F0F3F8C1E700007D1400086B
:1010800070B5040004D094F83D00002510B106E0CE
:10109000012070BD84F83C50204600F023F8242045
:1010A00084F83D002068C16821F40051C1602046E9
:1010B00000F074FA2068016921F490410161206810
:1010C000416921F02A0141612068C16841F4005161
:1010D000C1602564202084F83D0084F83E00002093
:1010E00070BD000070B586B0044614216846FFF755
:1010F000A9F82A49284E20680025284A14390223D5
:101100000324B04220D1106840F010001060106835
:1011100000F010000590086840F0010008600868C1
:10112000694600F00100059060028DE82900072063
:10113000CDE903401A48FFF721F900221146252086
:10114000FFF78AFB252022E0164EB04221D110681D
:1011500040F020001060106800F020000590086842
:1011600040F0040008600868694600F0040005903B
:10117000C0208DE829000820CDE903400A48FFF788
:10118000FDF8002211464720FFF766FB4720FFF7D6
:1011900055FB06B070BD000000100140443802400D
:1011A00000000240001401400008024070472DE991
:1011B000F843044690F83D001F4615460E46202889
:1011C0004BD1C6B1BDB194F83C00012845D00120F7
:1011D00084F83C004FF00008C4F84080212084F8D7
:1011E0003D00FFF7A3F9A5848146E584A068B0F52A
:1011F000805F03D004E00120BDE8F883206920B1BE
:101200003546002684F83C800EE00025FAE7802170
:10121000204600F049FAA0B9ADB115F8010B2168DC
:101220004860E08C401EE084E08C4B464FF00002AA
:1012300000970028EBD14FF04001204600F034FA2F
:1012400030B10320D8E736F8020BC0F30800E6E718
:10125000202084F83D000020CEE70220CCE7704734
:10126000FEE7000030B587B014216846FEF7EAFFBC
:1012700019480024016841F004010160016801F08F
:1012800004010591016841F080010160016801F0ED
:1012900080010591016841F001010160016801F0E0
:1012A00001010591016841F00201016000680B4DE8
:1012B00000F002000590002220212846FFF730F9B7
:1012C000202000900120CDE90104694628460394BE
:1012D000FFF754F807B030BD30380240000002403C
:1012E0000D4810B50B4901600C49416000214FF4D5
:1012F00080428160C0E9031241618161C161016284
:10130000FFF71AF9002803D0BDE81040FEF7D8BF58
:1013100010BD00000054004014000020A086010011
:101320000D4810B50B4901600C49416000214FF494
:1013300080428160C0E9031241618161C161016243
:10134000FFF7FAF8002803D0BDE81040FEF7B8BF59
:1013500010BD00000058004068000020A086010079
:101360000C4810B50A4901604FF4E1314160002199
:1013700081600C22C160C0E904128161C161FFF784
:101380007FFE002803D0BDE81040FEF799BF10BDD6
:1013900000100140BC0000200C4810B50A49016053
:1013A0004FF4E1314160002181600C22C160C0E94D
:1013B00004128161C161FFF763FE002803D0BDE81C
:1013C0001040FEF77DBF10BD001401400001002059
:1013D000FEE7FEE770477047FFF7D6B930B593B028
:1013E00030216846FEF72EFF14210CA8FEF72AFFD5
:1013F0001C480025016841F080510160006800F040
:10140000805011901848016841F440410160006823
:10141000022400F440401190012003901020049019
:10142000009406940820CDE907504820CDE909042E
:1014300004200B906846FFF72DFB08B172B6FEE75B
:101440000CA90F2081E831004FF48050CDE90F0541
:1014500002210CA8FFF732FA002801D072B6FEE78D
:1014600013B030BD403802400070004002480168AF
:1014700041F470010160704788ED00E010B5806BA9
:101480000021C185C184FFF7C6FC10BD01680C3185
:1014900051E8002F22F4907241E80023002BF5D18F
:1014A0000168143151E8002F22F0010241E80023C5
:1014B000002BF5D1016B012909D101680C3151E8EC
:1014C000002F22F0100241E80023002BF5D120214B
:1014D00080F83E1000210163704708B590F83E1077
:1014E000222901D0022008BD81684FF4805399421F
:1014F00001D1026922B1826A99421BD049B10AE046
:101500000268816A5268C2F308020A80816A891CF3
:1015100008E0016971B10168496801F07F0111704B
:10152000816A491C8162C18D491E0904090CC1856B
:1015300003D019E001684968F1E70168CA6822F040
:101540002002CA600168CA6822F48072CA60016819
:101550004A6922F001024A61202180F83E10016BA5
:10156000012903D0FFF722FE002008BD00210163FE
:1015700001680C3151E8002F22F0100241E80023ED
:10158000002BF5D101680A68D20602D50A684968BD
:101590000091818DFFF73EFCE6E7000070B5044640
:1015A00000680169E26821F4405111430161A168BA
:1015B0002069E26901436069104301432068C26801
:1015C00049F20C639A430A43C26020684169A269E8
:1015D00021F440711143416131492068884202D0B1
:1015E0003049884202D1FFF713FA01E0FFF700FA11
:1015F000E2690023192164253226B2F5004F6268A2
:1016000028D0A0FB0101930F9200FEF7E3FD0146F5
:10161000B0FBF5F06FF01802504301EB800006EBD1
:101620000010B0FBF5F000F0F002B1FBF5F002EBBA
:101630000012B1FBF5F06FF01803584301EB800086
:1016400006EB0010B0FBF5F000F00F00216810442D
:10165000886070BDA0FB010192185B41FEF7BAFDE6
:101660000146B0FBF5F00201B1FBF5F06FF0180395
:10167000584301EB800006EBC000B0FBF5F000F032
:10168000F80002EB4002B1FBF5F0584301EB80009B
:1016900006EBC000B0FBF5F000F00700D6E7000055
:1016A00000100140001401402DE9F0411E4617468C
:1016B00088460446069D26E0681C24D025B1FEF726
:1016C00035FF801BA8421ED920680C3050E8001F4F
:1016D00021F4D07140E80012002AF5D120681430BE
:1016E00050E8001F21F0010140E80012002AF5D166
:1016F000202084F83D0084F83E00002084F83C005F
:101700000320BDE8F0812068016838EA010004D0B8
:101710000020B842D0D00020F3E70120F9E7000014
:101720000148FFF779BB0000BC0000200148FFF72B
:1017300073BB000000010020FEE70000014A0249DF
:1017400000F023B8AD170008100000200907090EAB
:10175000002804DB00F1E02080F80014704700F05E
:101760000F0000F1E02080F8141D704702E008C867
:10177000121F08C1002AFAD170477047002001E00B
:1017800001C1121F002AFBD170472DE9F041164616
:101790000F460446002503E03946B047641C6D1C23
:1017A00020780028F8D12846BDE8F08113B54FF61F
:1017B000FF73012269460248FFF7F9FC00981CBD3F
:1017C00000010020FEF7E8FFFFF708FEFFF74AFDE3
:1017D000FFF7C6FDFFF7E0FDFFF782FDFFF7A0FD75
:1017E000044C05A0FFF7AAFF012220212046FEF7A6
:1017F00097FEF6E700000240746573740000000075
:1018000000000000000000000102030406070809B0
:101810000000000001020304381800080000002046
:10182000140000006C1700084C1800081400002079
:10183000340500007C1700080100000010000000C3
:0C184000000000000024F4000000000084
:040000050800019955
:00000001FF
