:020000040800F2
:10000000D8050020AD010008293F00082D34000864
:10001000253F000835070008ED4E000800000000ED
:100020000000000000000000000000009D3F0008EC
:100030003907000800000000993F0008F53F00085C
:10004000C7010008C7010008C7010008C701000870
:10005000C7010008C7010008C7010008C701000860
:10006000C7010008C7010008C7010008C701000850
:10007000C7010008C7010008C7010008C701000840
:10008000C7010008C7010008C70100080000000000
:10009000000000000000000000000000C701000890
:1000A000C701000829470008C7010008C701000868
:1000B000C7010008C7010008C7010008C701000800
:1000C000C7010008C7010008C7010008C7010008F0
:1000D000C7010008CD4E0008C7010008000000005D
:1000E000C7010008C7010008C701000800000000A0
:1000F000000000000000000000000000C701000830
:1001000000000000C7010008C7010008C70100087F
:1001100000000000000000000000000000000000DF
:10012000C7010008C7010008C7010008C70100088F
:10013000C7010008000000000000000000000000EF
:10014000000000000000000000000000C7010008DF
:10015000C7010008C7010008C7010008DD4E0008FC
:10016000C7010008C70100080000000000000000EF
:10017000000000000000000000000000000000007F
:1001800000000000C701000800000000000000009F
:10019000C7010008C7010008DFF80CD000F0B8FA6A
:1001A0000048004729530008D8050020064880472A
:1001B00006480047FEE7FEE7FEE7FEE7FEE7FEE74C
:1001C000FEE7FEE7FEE7FEE7B14000089901000800
:1001D0002DE9F05F0546002092469B46884606467C
:1001E000814640241BE0284641464746224600F00F
:1001F00070F953465A46C01A914110D31146184619
:10020000224600F057F92D1A67EB01084F462246A7
:100210000120002100F04EF917EB00094E41201E8D
:10022000A4F10104DFDC484631462A464346BDE8D6
:10023000F09FD2B201E000F8012B491EFBD27047BB
:100240000022F6E710B513460A4604461946FFF7A2
:10025000F0FF204610BD2DE9FE4F804681EA0300E5
:10026000C00F0C46009021F0004123F00045B8EB90
:100270000200A94105D24046214690461C460B4645
:10028000024623F00040104347D0270DC7F30A0071
:10029000C3F30A510290401A019040286BDAC3F36D
:1002A000130040F4801B0098924620B10023D2EB4B
:1002B000030A63EB0B0B01985946C0F1400250460C
:1002C00000F0F8F806460D4650465946019A00F0EF
:1002D00010F910EB08006141002487EA115284EA0A
:1002E000E7731A4340D0009A62B3019A012A4FEA99
:1002F000075215DC001B61EB02014FF0004202EADD
:100300000752CDE90042001C41F5801132462B46D0
:1003100000F010F903B0BDE8F08F40462146F9E740
:10032000001B61EB0201001C41F5801300185B41CA
:100330002018A2F5001747EB030140EAD570B61963
:100340006D4111E06D084FEA360645EAC0754FEA87
:100350000752001B61EB0201001C41F580114908A6
:100360004FEA30000019514132462B4603B0BDE838
:10037000F04F00F0D0B80098012240000023D0EBED
:10038000020263EBE073009821464FEAE074B8EB99
:10039000000061EB0401E9E783F000435BE781F0D3
:1003A000004158E72DE9FE4F81EA030404F00044C0
:1003B00021F0004100944FF0000B23F0004350EA7D
:1003C00001045ED052EA03045BD0C3F30A54C1F3C4
:1003D0000A552C44A4F2F3340194A0FB0254C1F357
:1003E000130141F48011C3F3130343F4801301FBA1
:1003F000024400FB034E840A970A44EA815447EA08
:100400008357A4FB076802958D0A05FB07854FEA11
:10041000932C04FB0C542705029D4FEA065847EA2B
:100420001637B5EB08056EEB070C870E920E47EA00
:10043000811742EA8312A7FB0201B6EB0B0164EBC2
:1004400000042B0D43EA0C335E1844EB1C50DA46D3
:100450005146E7FB0201C5F313044FEA0B3343EAAD
:1004600014534FEA0432019C43EA0603A4F10C043E
:100470000294009CCDE900B400F05CF803B0BDE844
:10048000F08F00200146F9E730B50B460146002009
:100490002022012409E021FA02F59D4205D303FA46
:1004A00002F5491B04FA02F52844151EA2F10102C7
:1004B000F1DC30BD202A04DB203A00FA02F10020F2
:1004C00070479140C2F1200320FA03F31943904092
:1004D0007047202A04DB203A21FA02F000217047FD
:1004E00021FA02F3D040C2F120029140084319469C
:1004F0007047202A06DBCB17203A41FA02F043EA84
:10050000E07306E041FA02F3D040C2F120029140CC
:1005100008431946704710B5141E73F1000408DA39
:10052000401C41F1000192185B411A4301D120F0B7
:10053000010010BD2DE9F04D92469B4611B1B1FA74
:1005400081F202E0B0FA80F220329046FFF7B2FF6B
:1005500004460F4640EA0A0041EA0B0153465A4658
:10056000084313D0114653EA010019D0C8F14002E4
:100570005046FFF7AEFF05460E46504659464246E6
:10058000FFF798FF084305D0012004E020463946D4
:10059000BDE8F08D0020054346EAE0762C43374362
:1005A0000A986305E40AA0EB08000022FD0A44EA69
:1005B00047540A3002D500200146E9E70105101929
:1005C0006941DDE9084500196941BDE8F04DA2E740
:1005D0002DE9F04D81EA030404F0004B21F00045C1
:1005E00014464FF0000A23F0004150EA050220D0E3
:1005F00054EA01021DD0C5F30A570246C5F313039E
:10060000C1F31300C1F30A5640F4801543F480137C
:10061000A7EB0608101BD64608F2FD3873EB050061
:1006200002D308F1010801E092185B41B8F1000F14
:1006300003DA00200146BDE8F08D00204FF4801160
:10064000064684460EE0171B73EB050705D3121B05
:1006500063EB050306434CEA010C49084FEA3000FE
:1006600092185B4150EA0107EDD152EA030012D023
:1006700082EA040083EA0501084305D0101BAB4160
:1006800006D20122002306E000224FF0004302E0E0
:100690006FF0010253101AEB06004CEB085110EBFF
:1006A0000A0041EB0B01BDE8F04DFFF734BFC1F389
:1006B0000A52C1F3130140F2FF3341F480119A4210
:1006C00002DA00200146704740F233439A42A2F218
:1006D000334202DC5242FFF7FCBEFFF7EBBE0000E4
:1006E00030B5041E71F1000404DB4FF000444042B9
:1006F00064EB0101141E73F1000405DB1C464FF08E
:100700000043524263EB0403994208BF904230BD5C
:10071000064C074D06E0E06840F0010394E807004E
:1007200098471034AC42F6D3FFF73AFD705E0008EC
:10073000905E0008FFE7FEE77047000081B0EFF32E
:10074000108072B60090FFE7FEE7000080B584B02D
:1007500002900298806D019000F0A8FA0090029833
:1007600090F8350002280DD0FFE7029980204865F7
:10077000FFE70299002081F83400FFE701208DF89F
:100780000F0055E002980168086820F01600086024
:1007900002980168486920F0800048610298006C66
:1007A00020B9FFE70298806C38B1FFE70298016832
:1007B000086820F008000860FFE7029801680868F0
:1007C00020F001000860FFE7029800680068C00799
:1007D000C8B1FFE700F06AFA0099401A062811D361
:1007E000FFE70299202048650299032081F835002F
:1007F000FFE70299002081F83400FFE703208DF81D
:100800000F0015E0E0E70298C16D3F208840019994
:1008100088600299012081F83500FFE702990020E5
:1008200081F83400FFE7FFE700208DF80F00FFE7B5
:100830009DF80F0004B080BD82B00090009890F841
:100840003500022807D0FFE7009980204865012085
:100850008DF807000EE00099052081F8350000981A
:100860000168086820F001000860FFE700208DF8AB
:100870000700FFE79DF8070002B0704780B584B01D
:10088000039000F013FA0290039801900198013050
:1008900048B1FFE740F20800C2F200000178019879
:1008A00008440190FFE7FFE700F000FA0299401AC0
:1008B0000199884201D2FFE7F6E704B080BD00004D
:1008C0008BB00A900991002007900690059008903F
:1008D000FFE708980F2800F2A281FFE7089901209E
:1008E0008840079009980068079908400690069884
:1008F0000799884240F08E81FFE70998406800F030
:100900000300012807D0FFE70998406800F00300C2
:1009100002282FD1FFE70A988068059008984100C7
:10092000032000FA01F10598884305900998C068F2
:100930000899490000FA01F10598084305900598C7
:100940000A9988600A98406805900899012000FA81
:1009500001F105988843059009984068C0F300109C
:10096000089900FA01F105980843059005980A993D
:100970004860FFE70998406800F00300032818D09A
:10098000FFE70A98C068059008984100032000FA24
:1009900001F10598884305900998806808994900F5
:1009A00000FA01F105980843059005980A99C86076
:1009B000FFE70998406800F00300022826D1FFE70E
:1009C0000A9808996FF0030202EA51010844006A8C
:1009D0000590089800F0070081000F2000FA01F14F
:1009E00005988843059009980069089901F0070166
:1009F000890000FA01F105980843059005980A99C5
:100A0000089B02EA530211440862FFE70A98006853
:100A1000059008984100032000FA01F105988843E9
:100A200005900998406800F003000899490000FA11
:100A300001F105980843059005980A9908600998FE
:100A400080798007002800F0E480FFE7FFE70020BE
:100A5000049043F64400C4F20200016841F480416E
:100A60000160006800F4804004900498FFE7089853
:100A700020F0030043F60801C4F20101405805903C
:100A8000089800F0030081000F2000FA01F105989A
:100A9000884305900A980021C4F20201884203D1DC
:100AA000FFE70020039034E00A9840F20041C4F2CE
:100AB0000201884203D1FFE70120029026E00A9854
:100AC00040F60001C4F20201884203D1FFE7022090
:100AD000019018E00A9840F60041C4F202018842F1
:100AE00003D1FFE7032000900AE00A9941F20002D7
:100AF000C4F202020720914208BF04200090FFE7E1
:100B000000980190FFE701980290FFE70298039098
:100B1000FFE70398C0B2089901F00301890000FAC9
:100B200001F10598084305900598089921F0030103
:100B300043F60802C4F20102885043F60840C4F2AA
:100B4000010000680590069905988843059009986A
:100B50008079C006002805D5FFE706990598084367
:100B60000590FFE7059843F60841C4F201010860CB
:100B700043F60C40C4F20100006805900699059800
:100B800088430590099880798006002805D5FFE7FD
:100B90000699059808430590FFE7059843F60C4130
:100BA000C4F20101086043F60440C4F20100006889
:100BB00005900699059888430590099880798007E3
:100BC000002805D5FFE70699059808430590FFE73B
:100BD000059843F60441C4F20101086043F6004061
:100BE000C4F20100006805900699059888430590B5
:100BF00009988079C00728B1FFE70699059808434E
:100C00000590FFE7059843F60041C4F20101086032
:100C1000FFE7FFE7FFE708980130089059E60BB0BF
:100C20007047000082B00190ADF802100198006991
:100C3000BDF80210084204D0FFE701208DF8010042
:100C400003E000208DF80100FFE79DF8010002B0ED
:100C50007047000083B00290ADF80610029840691A
:100C60000090009ABDF8060002EA0001904340EAB5
:100C700001400299886103B07047000082B0019082
:100C8000ADF802108DF801209DF8010028B1FFE7B2
:100C9000BDF802000199886105E0BDF8020000047A
:100CA00001998861FFE702B07047000040F2D4105C
:100CB000C2F200000068704780B58EB00C900C98AE
:100CC00020B9FFE701208DF8370043E10C9890F838
:100CD0003D0040B9FFE70C99002081F83C000C98DA
:100CE00000F05AFCFFE70C99242081F83D000C9895
:100CF0000168086820F0010008600C980168086825
:100D000040F4004008600C980168086820F4004036
:100D1000086000F08DFE0A900C98406848F2A061CF
:100D2000C0F2010188420BD8FFE70A9948F28042DD
:100D3000C0F21E020020914238BF012009900AE053
:100D40000A9940F60012C0F23D020020914238BFDD
:100D500001200990FFE70998012804D1FFE701204D
:100D60008DF83700F6E00A984DF68361C4F21B3126
:100D7000A0FB0110800C0B900C980068406820F0DC
:100D80003F000B9908430C99096848600C9800686B
:100D9000006A20F03F0008900C98406848F2A0617B
:100DA000C0F20101884204D8FFE70B980130079098
:100DB0000EE00B984FF49671484344F6D351C1F2BC
:100DC0006201A0FB0101012000EB91100790FFE7F9
:100DD0000898079908430C99096808620C980068FC
:100DE000C0694CF6FF71884306900C98406848F241
:100DF000A061C0F2010188421FD8FFE70A980138BC
:100E00000C9949684900B0FBF1F001306FF31F30D5
:100E1000032803D8FFE7042005900BE00A98013867
:100E20000C9949684900B0FBF1F001306FF31F30B5
:100E30000590FFE7059804904CE00C98806868B92D
:100E4000FFE70A9801380C99496801EB4101B0FBB2
:100E5000F1F001306FF31F3003900DE00A98013874
:100E60000C99496819225143B0FBF1F0013004217B
:100E700061F31F300390FFE70398000518B9FFE7FF
:100E80000120029023E00C98806868B9FFE70A9877
:100E900001380C99496801EB4101B0FBF1F00130D8
:100EA0006FF31F3001900DE00A9801380C994968E2
:100EB00019225143B0FBF1F00130042161F31F30DE
:100EC0000190FFE7019840F400400290FFE702988C
:100ED0000490FFE70698049908430C990968C861D3
:100EE0000C980068006820F0C0000C9B1968DA6953
:100EF0001B6A1A43104308600C980068806848F227
:100F0000FF3188430C9A1168D36812691A43104361
:100F100088600C980068C06820F0FF000C9B19687E
:100F20005A699B691A431043C8600C9801680868A5
:100F300040F0010008600C99002008640C9A202100
:100F400082F83D100C9908630C9981F83E008DF8E9
:100F50003700FFE79DF837000EB080BD10B58CB0AC
:100F6000844610980F98DDF838E0CDF828C0ADF829
:100F70002610ADF82420ADF82230ADF82000FFF7A0
:100F800095FE07900A9890F83D00202840F0F481E3
:100F9000FFE70A9807996A4611600221C0F2100122
:100FA0000122192302F052FC20B1FFE702208DF844
:100FB0002F00E5E1FFE70A9890F83C00012804D1F2
:100FC000FFE702208DF82F00DAE10A99012081F86D
:100FD0003C00FFE7FFE70A9800680068C00738B9DF
:100FE000FFE70A980168086840F001000860FFE721
:100FF0000A980168086820F4006008600A992220B5
:1010000081F83D000A99402081F83E000A990020AD
:1010100008640E980A994862BDF820000A9948852C
:101020000A98408D0A9908850A990020CFF6FF702A
:10103000C8620A98BDF82610BDF82420BDF82230F9
:10104000DDF840C0079CEE46CEF80440CEF800C064
:1010500002F020FA20B1FFE701208DF82F008FE188
:101060000A98008DA0B9FFE7FFE7002006900A98D4
:101070000068406906900A980068806906900698A2
:10108000FFE70A980168086840F4007008604DE0C6
:101090000A98008D01281AD1FFE70A9801680868AC
:1010A00020F480600860FFE7002005900A9800683F
:1010B000406905900A980068806905900598FFE7E7
:1010C0000A980168086840F4007008602DE00A98EA
:1010D000008D02281AD1FFE70A980168086820F4F9
:1010E000806008600A980168086840F40060086041
:1010F000FFE7002004900A980068406904900A986D
:101100000068806904900498FFE70DE0FFE7002085
:1011100003900A980068406903900A980068806903
:1011200003900398FFE7FFE7FFE7FFE7FFE70A9871
:10113000008D002800F00E81FFE70A98008D03283B
:1011400000F2CC80FFE70A98008D01281ED1FFE74E
:101150000A981099079A02F061FC20B1FFE701207C
:101160008DF82F000CE10A98006800690A99496A15
:1011700008700A99486A013048620A99088D013856
:1011800008850A99488D01384885A6E00A98008D9F
:1011900002283CD1FFE70A98109B07996A46116024
:1011A0000421C0F20101002202F050FB20B1FFE750
:1011B00001208DF82F00E3E00A980168086840F4E8
:1011C000007008600A98006800690A99496A087006
:1011D0000A99486A013048620A99088D01380885E1
:1011E0000A99488D013848850A98006800690A996B
:1011F000496A08700A99486A013048620A99088D5C
:10120000013808850A99488D0138488564E00A98B4
:10121000109B07996A4611600421C0F20101002267
:1012200002F014FB20B1FFE701208DF82F00A7E0AA
:101230000A980168086820F4806008600A980068CD
:1012400000690A99496A08700A99486A0130486237
:101250000A99088D013808850A99488D0138488512
:101260000A98109B07996A4611600421C0F2010197
:10127000002202F0EBFA20B1FFE701208DF82F00E9
:101280007EE00A980168086840F4007008600A98D7
:10129000006800690A99496A08700A99486A013029
:1012A00048620A99088D013808850A99488D0138E5
:1012B00048850A98006800690A99496A08700A997D
:1012C000486A013048620A99088D013808850A99F0
:1012D000488D01384885FFE7FFE73AE00A98109902
:1012E000079A02F09BFB20B1FFE701208DF82F0049
:1012F00046E00A98006800690A99496A08700A99E4
:10130000486A013048620A99088D013808850A99AF
:10131000488D013848850A980068406900F004014A
:101320000120B0EB910F13D1FFE70A980068006924
:101330000A99496A08700A99486A013048620A990C
:10134000088D013808850A99488D01384885FFE7DE
:10135000FFE7ECE60A99202081F83D000A99002079
:1013600081F83E00FFE70A99002081F83C00FFE782
:1013700000208DF82F0003E002208DF82F00FFE7FA
:101380009DF82F000CB010BD10B588B084460C98A5
:101390000B98DDF828E0CDF818C0ADF81610ADF8C0
:1013A0001420ADF81230ADF81000FFF77FFC039069
:1013B000069890F83D00202840F0E680FFE7069868
:1013C00003996A4611600221C0F21001012219231B
:1013D00002F03CFA20B1FFE702208DF81F00D7E0B1
:1013E000FFE7069890F83C00012804D1FFE70220AF
:1013F0008DF81F00CCE00699012081F83C00FFE742
:10140000FFE7069800680068C00738B9FFE706984C
:101410000168086840F001000860FFE7069801686D
:10142000086820F4006008600699212081F83D00DA
:101430000699402081F83E000699002008640A9829
:1014400006994862BDF81000069948850698408DB7
:101450000699088506990020CFF6FF70C8620698A5
:10146000BDF81610BDF81420BDF81230DDF830C0FC
:10147000039CEE46CEF80440CEF800C002F0FCF823
:1014800020B1FFE701208DF81F0081E0FFE70698FB
:10149000008D002849D0FFE706980C99039A02F0C6
:1014A00021FB80B1FFE70698006C042807D1FFE715
:1014B00006980168086840F400700860FFE70120A2
:1014C0008DF81F0064E006980168406A00780861A2
:1014D0000699486A013048620699088D01380885E6
:1014E0000699488D0138488506980068406900F0E3
:1014F00004010120B0EB910F16D1FFE70698008D93
:1015000090B1FFE706980168406A00780861069983
:10151000486A013048620699088D013808850699A5
:10152000488D01384885FFE7B1E706980C99039A82
:1015300002F040F980B1FFE70698006C042807D15B
:10154000FFE706980168086840F400700860FFE74C
:1015500001208DF81F001BE006980168086840F420
:10156000007008600699202081F83D00069900204F
:1015700081F83E00FFE70699002081F83C00FFE774
:1015800000208DF81F0003E002208DF81F00FFE708
:101590009DF81F0008B010BD80B58EB00D900020E2
:1015A0000C900B900A90099008900D98006845F6F1
:1015B0000001C4F2000188424CD1FFE7FFE70020A0
:1015C000079043F63000C4F20200016841F00201C6
:1015D0000160006800F0020007900798FFE74FF4F1
:1015E00080600890122001900990002002900A90DB
:1015F000032003900B9004200C9040F20040C4F2B2
:101600000200049008A90591FFF75AF9DDF804C01B
:10161000029B039A049805994FF4007ECDF820E0D0
:10162000CDF824C00A930B9209220C92FFF748F9D7
:10163000FFE70020069043F64000C4F20200016874
:1016400041F480010160006800F480000690069873
:10165000FFE7FFE70EB080BD40F20800C2F20000D5
:10166000027840F2D411C2F2000108681044086008
:101670007047000080B543F60041C4F202010868DB
:1016800040F400700860086840F4806008600868F2
:1016900040F480700860032000F08AF80F2000F00A
:1016A00005F800F03BF8002080BD000080B582B056
:1016B000009040F20400C2F20000006840F208010D
:1016C000C2F200010A784FF47A71B1FBF2F1B0FB7B
:1016D000F1F000F0A5FD20B1FFE701208DF8070033
:1016E00018E000980F280DD8FFE700994FF0FF3061
:1016F000002200F043F8009840F20C01C2F2000111
:10170000086003E001208DF8070003E000208DF859
:101710000700FFE79DF8070002B080BD82B0FFE739
:101720000020019043F64400C4F20200016841F435
:1017300080410160006800F4804001900198FFE75B
:10174000FFE70020009043F64000C4F20200016869
:1017500041F080510160006800F0805000900098D6
:10176000FFE702B07047000080B582B08DF8070037
:101770009DF9070003F01EFD02B080BD80B586B064
:101780008DF81700049103920020029003F02AFDC7
:1017900002909DF91700019002980499039A02F0B3
:1017A000C5FB0146019803F025FD06B080BD000091
:1017B00080B582B00190019803F03EFD02B080BD7B
:1017C00080B584B002900191029820B9FFE7012012
:1017D0008DF80F0021E1019843F60041C4F20201A7
:1017E000096801F00701884212D9FFE7019943F621
:1017F0000040C4F202000170006800F00700019987
:10180000884204D0FFE701208DF80F0005E1FFE7D3
:1018100002980078800700282AD5FFE70298007810
:101820004007002809D5FFE743F60801C4F202018A
:10183000086840F4E0500860FFE70298007800076D
:10184000002809D5FFE743F60801C4F20201086841
:1018500040F460400860FFE743F60801C4F202016B
:10186000086820F0F000029A926810430860FFE7D1
:1018700002980078C00700286ED0FFE70298406801
:10188000012811D1FFE743F60000C4F2020000680E
:1018900000F400310020B0EB514F04D1FFE70120EC
:1018A0008DF80F00B9E02CE002984068022805D0BE
:1018B000FFE702984068032811D1FFE743F60000D4
:1018C000C4F20200006800F000710020B0EB516F1C
:1018D00004D1FFE701208DF80F009EE010E043F6F1
:1018E0000000C4F20200006800F002010020B0EB2A
:1018F000510F04D1FFE701208DF80F008DE0FFE7C5
:10190000FFE743F60801C4F20201086820F0030073
:10191000029A526810430860FFF7C8F90090FFE789
:1019200043F60800C4F20200006800F00C000299BF
:101930004968B0EB810F0ED0FFE7FFF7B7F90099C8
:10194000401A41F28931884204D3FFE703208DF821
:101950000F0062E0E4E7FFE7019843F60041C4F2BC
:101960000201096801F00701884212D2FFE70199DC
:1019700043F60040C4F202000170006800F0070066
:101980000199884204D0FFE701208DF80F0044E060
:10199000FFE702980078400700280CD5FFE743F6E0
:1019A0000801C4F20201086820F4E050029AD268EB
:1019B00010430860FFE702980078000700280DD563
:1019C000FFE743F60801C4F20201086820F4604012
:1019D000029A126940EAC2000860FFE700F04CF882
:1019E00043F60801C4F202010968C9B20A0945F6C2
:1019F0006251C0F60001895CC84040F20401C2F2A5
:101A00000001086040F20C00C2F200000068FFF71D
:101A10004DFE00208DF80F00FFE79DF80F0004B089
:101A200080BD000040F20400C2F200000068704770
:101A300080B5FFF7F7FF43F60801C4F20201096819
:101A4000C1F3822245F67251C0F60001895CC8409C
:101A500080BD000080B5FFF7E5FF43F60801C4F242
:101A60000201096889B24A0B45F67251C0F60001BD
:101A7000895CC84080BD000080B586B0002005901C
:101A800004900390029043F60800C4F2020000683C
:101A900000F00C000146019140B1FFE701980428D5
:101AA0000AD0FFE7019808280CD04FE042F200402E
:101AB000C0F2F40002904FE047F64000C0F27D1003
:101AC000029049E043F60400C4F20200016801F00C
:101AD0003F01059100684002002813D5FFE743F657
:101AE0000400C4F202000068C0F3881047F6400109
:101AF000C0F27D11A0FB0101059A0023FEF768FBEF
:101B0000049012E043F60400C4F202000068C0F33F
:101B1000881042F20041C0F2F401A0FB0101059AD5
:101B20000023FEF755FB0490FFE743F60400C4F2E0
:101B30000200006800F44031022000EBD130039035
:101B400004980399B0FBF1F0029005E042F20040E6
:101B5000C0F2F4000290FFE7029806B080BD0000DA
:101B600080B586B00490049820B9FFE701208DF875
:101B7000170050E304980078C007002800F0A58003
:101B8000FFE743F60800C4F20200006800F00C0012
:101B9000042813D0FFE743F60800C4F202000068EF
:101BA00000F00C0008281ED1FFE743F60400C4F241
:101BB000020000684002002815D5FFE743F6000048
:101BC000C4F20200006800F400310020B0EB514F75
:101BD00008D0FFE70498406820B9FFE701208DF89E
:101BE000170018E370E0FFE704984068B0F5803F05
:101BF00009D1FFE743F60001C4F20201086840F48E
:101C00008030086020E004984068B0F5A02F0DD126
:101C1000FFE743F60001C4F20201086840F48020A7
:101C20000860086840F4803008600CE043F600016A
:101C3000C4F20201086820F480300860086820F4CB
:101C400080200860FFE7FFE7FFE704984068E8B1FD
:101C5000FFE7FFF72BF80390FFE743F60000C4F21D
:101C60000200006800F400310020B0EB514F0CD1AD
:101C7000FFE7FFF71BF80399401A652804D3FFE735
:101C800003208DF81700C6E2E7E71CE0FFF70EF827
:101C90000390FFE743F60000C4F20200006800F47E
:101CA00000310020B0EB514F0CD0FFE7FEF7FEFFF4
:101CB0000399401A652804D3FFE703208DF8170025
:101CC000A9E2E7E7FFE7FFE7FFE70498007880076E
:101CD000002840F19680FFE743F60800C4F20200B6
:101CE000006810F00C0F13D0FFE743F60800C4F2B1
:101CF0000200006800F00C0008282CD1FFE743F632
:101D00000400C4F2020000684002002823D4FFE768
:101D100043F60000C4F20200006800F00201002057
:101D2000B0EB510F09D0FFE70498C068012804D038
:101D3000FFE701208DF817006DE243F60001C4F2C1
:101D40000201086820F0F800049A126940EAC20013
:101D50000860FFE754E00498C06870B3FFE7002113
:101D6000C4F2472101200860FEF7A0FF0390FFE7BF
:101D700043F60000C4F20200006800F002010020F7
:101D8000B0EB510F0CD1FFE7FEF790FF0399401A1B
:101D9000032804D3FFE703208DF817003BE2E7E7B1
:101DA00043F60001C4F20201086820F0F800049A2A
:101DB000126940EAC200086021E00021C4F2472114
:101DC00000200860FEF772FF0390FFE743F6000073
:101DD000C4F20200006800F002010020B0EB510FD5
:101DE0000CD0FFE7FEF762FF0399401A032804D3E3
:101DF000FFE703208DF817000DE2E7E7FFE7FFE7B5
:101E0000FFE704980078000700284BD5FFE7049807
:101E1000406918B3FFE740F68061C4F24721012012
:101E20000860FEF743FF0390FFE743F67400C4F237
:101E30000200006800F002010020B0EB510F0CD14D
:101E4000FFE7FEF733FF0399401A032804D3FFE7A7
:101E500003208DF81700DEE1E7E722E040F680611D
:101E6000C4F2472100200860FEF720FF0390FFE73F
:101E700043F67400C4F20200006800F00201002082
:101E8000B0EB510F0CD0FFE7FEF710FF0399401A9B
:101E9000032804D3FFE703208DF81700BBE1E7E731
:101EA000FFE7FFE7049800784007002840F1CE8064
:101EB000FFE700208DF8070043F64000C4F202005F
:101EC0000068C000002815D4FFE7FFE7002000905D
:101ED00043F64000C4F20200016841F08051016005
:101EE000006800F0805000900098FFE701208DF816
:101EF0000700FFE747F20000C4F200000068C005D9
:101F0000002822D4FFE747F20001C4F2000108686C
:101F100040F480700860FEF7C9FE0390FFE747F2C7
:101F20000000C4F200000068C00500280CD4FFE7E0
:101F3000FEF7BCFE0399401A032804D3FFE70320F1
:101F40008DF8170067E1EAE7FFE7FFE7049880688C
:101F5000012809D1FFE743F67001C4F202010868C5
:101F600040F0010008601FE00498806805280DD14A
:101F7000FFE743F67001C4F20201086840F0040074
:101F80000860086840F0010008600CE043F670014A
:101F9000C4F20201086820F001000860086820F01F
:101FA00004000860FFE7FFE7FFE704988068F8B1E6
:101FB000FFE7FEF77BFE0390FFE743F67000C4F2F5
:101FC0000200006800F002010020B0EB510F0ED1BA
:101FD000FFE7FEF76BFE0399401A41F28931884210
:101FE00004D3FFE703208DF8170014E1E5E71EE0B6
:101FF000FEF75CFE0390FFE743F67000C4F20200B8
:10200000006800F002010020B0EB510F0ED0FFE796
:10201000FEF74CFE0399401A41F28931884204D3FD
:10202000FFE703208DF81700F5E0E5E7FFE79DF8EF
:102030000700012809D1FFE743F64001C4F202017D
:10204000086820F080500860FFE7FFE70498806987
:10205000002800F0DC80FFE743F60800C4F202002D
:10206000006800F00C00082800F08580FFE7049865
:10207000806902285CD1FFE76021C4F2472100207B
:102080000860FEF713FE0390FFE743F60000C4F27A
:102090000200006800F000710020B0EB516F0CD01E
:1020A000FFE7FEF703FE0399401A032804D3FFE776
:1020B00003208DF81700AEE0E7E70499C869D1F86E
:1020C00020C04B6A8A6A40EA0C0040EA8310D203BF
:1020D0004FF6FF739A43A2F580321043C96A40EA73
:1020E000016043F60401C4F2020108606021C4F2F9
:1020F000472101200860FEF7D9FD0390FFE743F672
:102100000000C4F20200006800F000710020B0EB93
:10211000516F0CD1FFE7FEF7C9FD0399401A032860
:1021200004D3FFE703208DF8170074E0E7E721E010
:102130006021C4F2472100200860FEF7B7FD03903C
:10214000FFE743F60000C4F20200006800F00071EF
:102150000020B0EB516F0CD0FFE7FEF7A7FD03990D
:10216000401A032804D3FFE703208DF8170052E03C
:10217000E7E7FFE74AE004988069012804D1FFE718
:1021800001208DF8170046E043F60400C4F2020077
:102190000068029004988069012831D0FFE7029816
:1021A00000F480000499C969884229D1FFE70298A8
:1021B00000F03F000499096A884221D1FFE70298A4
:1021C00047F6C07108400499496AB0EB811F17D1E6
:1021D000FFE7029800F440300499896AC9034FF67A
:1021E000FF729143A1F58031884209D1FFE702983F
:1021F00000F070600499C96AB0EB016F04D0FFE78A
:1022000001208DF8170006E0FFE7FFE7FFE7002059
:102210008DF81700FFE79DF8170006B080BD00009D
:1022200080B582B00190019801F0BAFE02B080BD85
:1022300081B0009001B0704781B0009001B070474C
:1022400085B003900291FFE7039890F83C000128C5
:1022500004D1FFE702208DF813006CE00399012000
:1022600081F83C00FFE7FFE70399022081F83D0079
:1022700003980068406801900398006880680090A7
:10228000019820F0700001900298016801980843BD
:10229000019001980399096848600398006800213B
:1022A000C4F2010188422AD0FFE703980068B0F128
:1022B000804F24D0FFE70398006840F20041C4F249
:1022C000000188421BD0FFE70398006840F6000138
:1022D000C4F20001884212D0FFE70398006840F67C
:1022E0000041C4F20001884209D0FFE7039800686A
:1022F00044F20001C4F2010188420ED1FFE70098C8
:1023000020F08000009002984168009808430090F7
:102310000098039909688860FFE70399012081F814
:102320003D00FFE70399002081F83C00FFE7002013
:102330008DF81300FFE79DF8130005B0704700000B
:1023400080B582B00090009820B9FFE701208DF899
:1023500007003FE0009890F83D0040B9FFE7009982
:10236000002081F83C00009800F038F8FFE7009961
:10237000022081F83D00009951F8040B02F0DCF9CD
:102380000099012081F84600FFE70099012081F8BB
:102390003E00009981F83F00009981F840000099C3
:1023A00081F84100FFE7FFE70099012081F8420032
:1023B000009981F84300009981F84400009981F860
:1023C0004500FFE70099012081F83D0000208DF8CD
:1023D0000700FFE79DF8070002B080BD80B584B01C
:1023E0000390039800680021C4F2010188421BD1C8
:1023F000FFE7FFE70020029043F64400C4F202002A
:10240000016841F001010160006800F001000290E4
:102410000298FFE71920009000221146FFF7AEF95D
:102420000098FFF7A1F918E003980068B0F1804F19
:1024300012D1FFE7FFE70020019043F64000C4F20D
:102440000200016841F001010160006800F0010034
:1024500001900198FFE7FFE7FFE704B080BD0000AF
:1024600083B00190019890F83D00012804D0FFE767
:1024700001208DF80B0052E00199022081F83D0007
:10248000019800680021C4F2010188422AD0FFE7C8
:1024900001980068B0F1804F24D0FFE701980068F0
:1024A00040F20041C4F2000188421BD0FFE70198CE
:1024B000006840F60001C4F20001884212D0FFE734
:1024C0000198006840F60041C4F20001884209D03A
:1024D000FFE70198006844F20001C4F2010188425C
:1024E00012D1FFE701980068806800F007000090B3
:1024F0000098062807D0FFE701980168086840F0B7
:1025000001000860FFE706E001980168086840F0F4
:1025100001000860FFE700208DF80B00FFE79DF841
:102520000B0003B07047000083B00190019890F851
:102530003D00012804D0FFE701208DF80B0058E092
:102540000199022081F83D0001980168C86840F0B7
:102550000100C860019800680021C4F201018842AE
:102560002AD0FFE701980068B0F1804F24D0FFE740
:102570000198006840F20041C4F2000188421BD07B
:10258000FFE70198006840F60001C4F200018842AC
:1025900012D0FFE70198006840F60041C4F2000144
:1025A000884209D0FFE70198006844F20001C4F2B4
:1025B0000101884212D1FFE701980068806800F0AD
:1025C000070000900098062807D0FFE701980168EF
:1025D000086840F001000860FFE706E00198016824
:1025E000086840F001000860FFE700208DF80B004C
:1025F000FFE79DF80B0003B07047000081B000902A
:10260000FFE700980068006A41F21111084210D1FA
:10261000FFE700980068006A40F24441084207D191
:10262000FFE700980168086820F001000860FFE7F4
:10263000FFE7FFE70099012081F83D00002001B08D
:102640007047000080B586B00490039100208DF89B
:102650000B00FFE7049890F83C00012804D1FFE745
:1026600002208DF81700ABE00499012081F83C00AE
:10267000FFE7FFE70499022081F83D000498006815
:1026800080680190019820F077000190019820F473
:102690007F40019001980499096888600398006858
:1026A0000090002872D0FFE7009810286ED0FFE756
:1026B000009820286AD0FFE70098302866D0FFE70E
:1026C0000098402855D0FFE70098502837D0FFE702
:1026D0000098602840D0FFE7009870280BD0FFE7F3
:1026E0000098B0F5805F05D0FFE70098B0F5005F77
:1026F00016D052E055E004980068039B5A68996828
:10270000DB6802F0B7F804980068806801900198CF
:1027100040F077000190019804990968886040E0D2
:1027200004980068039B5A689968DB6802F0A2F875
:1027300004980168886840F48040886031E004981B
:102740000068039A5168D26802F0C4F804980068DF
:10275000502102F0A9F824E004980068039A516817
:10276000D26802F0DFF804980068602102F09CF85B
:1027700017E004980068039A5168D26802F0AAF83A
:1027800004980068402102F08FF80AE0049800687D
:102790000399096802F088F803E001208DF80B0026
:1027A000FFE70499012081F83D00FFE7049900202C
:1027B00081F83C00FFE79DF80B008DF81700FFE75C
:1027C0009DF8170006B080BD81B0009001B0704741
:1027D00080B582B0019001980068006900F00201A4
:1027E0000020B0EB510F28D0FFE701980068C068C7
:1027F00000F002010020B0EB510F1DD0FFE701985F
:1028000001686FF0020008610199012008770198C2
:1028100000688069800720B1FFE70198FFF7D4FFC7
:1028200006E0019800F012F9019800F013F9FFE7B3
:10283000019900200877FFE7FFE701980068006929
:1028400000F004010020B0EB910F29D0FFE70198C0
:102850000068C06800F004010020B0EB910F1ED0AA
:10286000FFE7019801686FF00400086101990220F8
:10287000087701980068806910F4407F04D0FFE772
:102880000198FFF7A1FF06E0019800F0DFF801983A
:1028900000F0E0F8FFE7019900200877FFE7FFE785
:1028A00001980068006900F008010020B0EBD10F2A
:1028B00028D0FFE701980068C06800F008010020F8
:1028C000B0EBD10F1DD0FFE7019801686FF0080051
:1028D000086101990420087701980068C0698007A1
:1028E00020B1FFE70198FFF76FFF06E0019800F0C5
:1028F000ADF8019800F0AEF8FFE7019900200877E5
:10290000FFE7FFE701980068006900F01001002070
:10291000B0EB111F29D0FFE701980068C06800F0F4
:1029200010010020B0EB111F1ED0FFE701980168D5
:102930006FF010000861019908200877019800687D
:10294000C06910F4407F04D0FFE70198FFF73CFF17
:1029500006E0019800F07AF8019800F07BF8FFE7B4
:10296000019900200877FFE7FFE7019800680069F8
:10297000C00780B1FFE701980068C068C00748B190
:10298000FFE7019801686FF001000861019800F00D
:1029900065F8FFE7FFE7019800680069C1B2002011
:1029A000B0EBD11F13D0FFE701980068C068C1B237
:1029B0000020B0EBD11F09D0FFE7019801686FF04C
:1029C000800008610198FFF733FCFFE7FFE70198FB
:1029D0000068006900F040010020B0EB911F14D0A6
:1029E000FFE701980068C06800F040010020B0EBEC
:1029F000911F09D0FFE7019801686FF0400008615E
:102A0000019800F039F8FFE7FFE7019800680069D6
:102A100000F020010020B0EB511F14D0FFE7019817
:102A20000068C06800F020010020B0EB511F09D001
:102A3000FFE7019801686FF0200008610198FFF737
:102A4000FBFBFFE7FFE702B080BD000081B0009014
:102A500001B0704781B0009001B0704781B0009024
:102A6000009840F27001C2F20001884201D1FFE7F4
:102A7000FFE701B07047000081B0009001B07047DF
:102A800082B00190ADF8021002B0704781B00090A2
:102A900001B0704780B592B011901198006800683D
:102AA000109011980068C0680F90119800684069F4
:102AB0000E9000200D900C90109800F00F000D90DB
:102AC0000D9888B9FFE79DF84000800600280AD5D8
:102AD000FFE79DF83C008006002804D5FFE7119829
:102AE00001F0B8FFE3E1FFE70D98002800F0C28095
:102AF000FFE79DF83800C00738B9FFE7BDF83C0094
:102B000010F4907F00F0B680FFE79DF84000C0070A
:102B100058B1FFE79DF83D00C00730B1FFE71199BC
:102B2000086C40F001000864FFE79DF84000400792
:102B300000280BD5FFE79DF83800C00730B1FFE74C
:102B40001199086C40F002000864FFE79DF840000E
:102B5000800700280BD5FFE79DF83800C00730B18B
:102B6000FFE71199086C40F004000864FFE79DF846
:102B700040000007002811D5FFE79DF83C008006C3
:102B8000002805D4FFE79DF83800C00730B1FFE703
:102B90001199086C40F008000864FFE71198006C78
:102BA000002866D0FFE79DF84000800600280AD57F
:102BB000FFE79DF83C008006002804D5FFE7119848
:102BC00001F048FFFFE7119800684069C0F38010EA
:102BD0000C901198006C0007002804D4FFE70C98B3
:102BE00000283ED0FFE7119801F0D6FE119800684A
:102BF0004069400600282FD5FFE7FFE7FFE711985F
:102C0000006850E8050F20F040000B90FFE70B999B
:102C10001198026842E805100028F0D1FFE7FFE7AD
:102C20001198806B98B1FFE71198816B44F6791089
:102C3000C0F6000008651198806BFDF7FDFD28B116
:102C4000FFE71198806B016D8847FFE703E011985B
:102C5000FFF71CFFFFE703E01198FFF717FFFFE7FF
:102C600006E01198FFF712FF119900200864FFE7B2
:102C7000FFE71CE11198006B012840F0F880FFE7A6
:102C80009DF84000C006002840F1F180FFE79DF864
:102C90003C00C006002840F1EA80FFE7FFE7002083
:102CA0000A901198006800680A90119800684068BE
:102CB0000A900A98FFE711980068406940060028CA
:102CC0007ED5FFE71198806B00684068ADF826005C
:102CD000BDF82600002872D0FFE7BDF82600119944
:102CE000898D88426BDAFFE7BDF826001199C88507
:102CF0001198806BC069B0F5807F58D0FFE7FFE77F
:102D0000FFE71198006850E8030F20F480700890E6
:102D1000FFE708991198026842E803100028F0D1F3
:102D2000FFE7FFE7FFE7FFE71198006850E8050FAE
:102D300020F001000790FFE707991198026842E828
:102D400005100028F0D1FFE7FFE7FFE7FFE7119844
:102D5000006850E8050F20F040000690FFE7069954
:102D60001198026842E805100028F0D1FFE7FFE75C
:102D70001199202081F83E00119900200863FFE797
:102D8000FFE71198006850E8030F20F0100005904D
:102D9000FFE705991198026842E803100028F0D176
:102DA000FFE7FFE71198806BFDF7D0FCFFE7119874
:102DB000818DC28D891A89B2FFF762FEFFE776E046
:102DC0001199888DC98D401AADF812001198C08DE7
:102DD00000284BD0FFE7BDF81200002846D0FFE7DF
:102DE000FFE7FFE71198006850E8030F20F49070A8
:102DF0000390FFE703991198026842E80310002846
:102E0000F0D1FFE7FFE7FFE7FFE71198006850E820
:102E1000050F20F001000290FFE702991198026867
:102E200042E805100028F0D1FFE7FFE711992020C4
:102E300081F83E00119900200863FFE7FFE7119831
:102E4000006850E8030F20F010000190FFE701999F
:102E50001198026842E803100028F0D1FFE7FFE76D
:102E60001198BDF81210FFF70BFEFFE71FE09DF869
:102E70004000000600280AD5FFE79DF83C00000648
:102E8000002804D5FFE7119801F06CFF0FE09DF8D2
:102E90004000400600280AD5FFE79DF83C004006A8
:102EA000002804D5FFE7119801F0C0FDFFE712B03C
:102EB00080BD000080B582B00090009820B9FFE787
:102EC00001208DF807003EE00098806908B1FFE717
:102ED00000E0FFE7009890F83D0040B9FFE7009957
:102EE000002081F83C00009800F032F8FFE70099DC
:102EF000242081F83D0000980168C86820F4005043
:102F0000C860009801F058FE00980168086920F434
:102F10009040086100980168486920F02A004861E3
:102F200000980168C86840F40050C860009900200B
:102F30000864009A202182F83D10009A82F83E1021
:102F40008DF80700FFE79DF8070002B080BD000084
:102F500080B590B00F9000200E900D900C900B90CB
:102F60000A900F98006841F20001C4F20101884202
:102F70003ED1FFE7FFE70020099043F64400C4F28A
:102F80000200016841F010010160006800F01000CB
:102F900009900998FFE7FFE70020089043F630000A
:102FA000C4F20200016841F001010160006800F014
:102FB000010008900898FFE74FF4C0600A900220D3
:102FC0000B90002002900C9003200D9007200E9093
:102FD0000020C4F202000AA9FDF772FC029A252023
:102FE00003901146FEF7CAFB0398FEF7BDFB84E091
:102FF0000F98006844F20041C4F20001884233D1C6
:10300000FFE7FFE70020079043F64000C4F202000C
:10301000016841F400310160006800F4003007905D
:103020000798FFE7FFE70020069043F63000C4F260
:103030000200016841F001010160006800F0010038
:1030400006900698FFE70C200A9002200B900020C3
:103050000C9003200D9007200E900020C4F2020077
:103060000AA9FDF72DFC47E00F98006841F20041E6
:10307000C4F2010188423ED1FFE7FFE7002005903E
:1030800043F64400C4F20200016841F020010160EF
:10309000006800F0200005900598FFE7FFE700209A
:1030A000049043F63000C4F20200016841F00401CC
:1030B0000160006800F0040004900498FFE7C0205D
:1030C0000A9002200B90002000900C9003200D909D
:1030D00008200E9040F60000C4F202000AA9FDF795
:1030E000EFFB009A472001901146FEF747FB01983D
:1030F000FEF73AFBFFE7FFE7FFE710B080BD0000F7
:1031000080B584B002900191ADF80220029890F849
:103110003E00202828D1FFE7019820B1FFE7BDF845
:10312000020020B9FFE701208DF80F0020E0FFE743
:10313000029890F83C00012804D1FFE702208DF8A6
:103140000F0015E00299012081F83C00FFE7FFE73E
:1031500002990020086302980199BDF8022001F04D
:10316000C9FD8DF80F0003E002208DF80F00FFE786
:103170009DF80F0004B080BD80B586B0059005981D
:1031800040F20011C2F20001884240F08180FFE766
:1031900040F21800C2F200000078302809D1FFE7A1
:1031A00040F20040C4F2020010210122FDF766FD4A
:1031B000FFE740F21800C2F200000078312809D180
:1031C000FFE740F20040C4F2020010210022FDF7A8
:1031D00055FDFFE740F21800C2F2000000783228E7
:1031E00009D1FFE740F20040C4F202002021012291
:1031F000FDF744FDFFE740F21800C2F2000000783E
:10320000332809D1FFE740F20040C4F20200202138
:103210000022FDF733FDFFE740F21800C2F2000084
:103220000078342810D1FFE740F20040C4F20200D9
:103230000390102100220492FDF720FD0398049AC8
:103240002021FDF71BFDFFE740F21800C2F200004D
:103250000078352810D1FFE740F20040C4F20200A8
:103260000190102101220292FDF708FD0198029AB7
:103270002021FDF703FDFFE740F20010C2F200003D
:1032800040F21801C2F200010122FFF739FFFFE707
:10329000059840F28811C2F20001884218D1FFE778
:1032A00040F20040C4F2020000901021FDF7D2FC71
:1032B00000982021FDF7CEFC40F28810C2F20000F9
:1032C00040F21901C2F200010122FFF719FFFFE7E6
:1032D00006B080BD80B58AB008900791ADF81A207D
:1032E000059300200290089890F83D00202840F0B7
:1032F0009080FFE7079820B1FFE7BDF81A0020B9DA
:10330000FFE701208DF8270087E0FFE7089890F895
:103310003C00012804D1FFE702208DF827007CE063
:103320000899012081F83C00FFE7FFE70899002099
:1033300008640899212081F83D00FDF7B7FC029050
:10334000BDF81A0008998884BDF81A000899C88445
:1033500008988068B0F5805F09D1FFE70898006998
:1033600028B9FFE7002004900798039004E007982D
:10337000049000200390FFE7FFE70899002081F800
:103380003C00FFE7FFE70898C08C58B3FFE70898B8
:10339000029B05996A4611608021002201F02CFDF4
:1033A00020B1FFE703208DF8270036E0049858B9D4
:1033B000FFE7039800886FF35F2008990968486069
:1033C00003980230039008E004980078089909688F
:1033D0004860049801300490FFE70899C88C0138D0
:1033E000C884D0E70898029B05996A46116040217D
:1033F000002201F001FD20B1FFE703208DF8270036
:103400000BE00899202081F83D0000208DF827006E
:1034100003E002208DF82700FFE79DF827000AB09F
:1034200080BD000081B0009001B07047FFE7FEE76B
:1034300082B0009000980068406900F4806101202B
:10344000B0EB912F1ED1FFE7009801686FF4806008
:103450004861009900200863009A202182F83D10FD
:10346000009981F83E000099086C40F0040008645F
:10347000FFE70099002081F83C00FFE701208DF86C
:10348000070003E000208DF80700FFE79DF8070024
:1034900002B0704780B586B0DDF824C0DDF820C0EA
:1034A0000490ADF80E10ADF80C20ADF80A30049879
:1034B0000168086840F48060086004980168086842
:1034C00040F4807008600498089B09996A4611606E
:1034D0004FF00111002200F0B9F980B1FFE7049824
:1034E00000680068C005002805D5FFE704994FF47F
:1034F00000700864FFE703208DF81700B7E0BDF8FF
:103500000E0000F0FE000499096808610498089A0A
:10351000099B0221C0F2010100F0F8F920B1FFE798
:1035200001208DF81700A2E0FFE700200190049829
:1035300000684069019004980068806901900198D2
:10354000FFE704980899099A00F0CCFA80B1FFE7E8
:103550000498006C042807D1FFE704980168086804
:1035600040F400700860FFE701208DF817007EE04E
:10357000BDF80A00012806D1FFE79DF80C00049968
:103580000968086121E09DF80D0004990968086147
:1035900004980899099A00F0A5FA80B1FFE7049809
:1035A000006C042807D1FFE704980168086840F41C
:1035B00000700860FFE701208DF8170057E09DF8C4
:1035C0000C00049909680861FFE704980899099AB2
:1035D00000F088FA80B1FFE70498006C042807D156
:1035E000FFE704980168086840F400700860FFE78E
:1035F00001208DF817003AE004980168086840F44B
:10360000807008600498089B09996A4611604FF021
:103610000111002200F01AF980B1FFE70498006858
:103620000068C005002805D5FFE704994FF4007035
:103630000864FFE703208DF8170018E09DF80E00DE
:1036400040F001000499096808610498089A099BF0
:103650000221C0F2010100F059F920B1FFE7012079
:103660008DF8170003E000208DF81700FFE79DF8A4
:10367000170006B080BD000080B586B0DDF824C01C
:10368000DDF820C00490ADF80E10ADF80C20ADF8B8
:103690000A3004980168086840F480700860049853
:1036A000089B09996A4611604FF00111002200F051
:1036B000CDF880B1FFE7049800680068C0050028D5
:1036C00005D5FFE704994FF400700864FFE7032075
:1036D0008DF8170069E0BDF80E0000F0FE000499B7
:1036E000096808610498089A099B0221C0F2010147
:1036F00000F00CF920B1FFE701208DF8170054E02D
:10370000FFE7002001900498006840690190049848
:103710000068806901900198FFE704980899099A68
:1037200000F0E0F980B1FFE70498006C042807D1AD
:10373000FFE704980168086840F400700860FFE73C
:1037400001208DF8170030E0BDF80A00012806D1ED
:10375000FFE79DF80C0004990968086121E09DF8D5
:103760000D0004990968086104980899099A00F005
:10377000B9F980B1FFE70498006C042807D1FFE78E
:1037800004980168086840F400700860FFE70120B1
:103790008DF8170009E09DF80C000499096808618C
:1037A000FFE700208DF81700FFE79DF8170006B02F
:1037B00080BD000080B584B0029001910092FFE7C7
:1037C00002980068406900F004010020B0EB910FFE
:1037D00033D1FFE70298FFF72BFE20B1FFE701206E
:1037E0008DF80F002DE00198013028B3FFE7FDF7B9
:1037F0005DFA0099401A0199884203D8FFE70198C1
:10380000C8B9FFE7029900200863029A202182F8D4
:103810003D10029981F83E000299086C40F02000AA
:103820000864FFE70299002081F83C00FFE70120CF
:103830008DF80F0005E0FFE7C2E700208DF80F00CC
:10384000FFE79DF80F0004B080BD000080B586B092
:10385000DDF820C0049003918DF80B200193FFE761
:103860009DF80E0001280CD1FFE70498006840691C
:10387000BDF80C100840401AB0FA80F040090090E2
:103880000BE0049800688069BDF80C100840401AED
:10389000B0FA80F040090090FFE700989DF80B1007
:1038A00088422AD1FFE70198013028B3FFE7FDF7EE
:1038B000FDF90899401A0199884203D8FFE7019859
:1038C000C8B9FFE7049900200863049A202182F810
:1038D0003D10049981F83E000499086C40F02000E6
:1038E0000864FFE70499002081F83C00FFE701200D
:1038F0008DF8170005E0FFE7B2E700208DF817000C
:10390000FFE79DF8170006B080BD000080B586B0C7
:103910000490039102920193FFE79DF80E000128A5
:103920000CD1FFE7049800684069BDF80C1008400E
:10393000401AB0FA80F0400900900BE0049800684B
:103940008069BDF80C100840401AB0FA80F04009B8
:103950000090FFE70098002858D1FFE7049800681E
:10396000406900F480610120B0EB912F24D1FFE782
:1039700004980168086840F40070086004980168C1
:103980006FF480604861049900200863049A202144
:1039900082F83D10049981F83E000499086C40F0CB
:1039A00004000864FFE70499002081F83C00FFE769
:1039B00001208DF817002DE00298013028B3FFE7B1
:1039C000FDF774F90199401A0299884203D8FFE77C
:1039D0000298C8B9FFE7049900200863049A2021DF
:1039E00082F83D10049981F83E000499086C40F07B
:1039F00020000864FFE70499002081F83C00FFE7FD
:103A000001208DF8170005E0FFE786E700208DF81C
:103A10001700FFE79DF8170006B080BD80B584B0A1
:103A2000029001910092FFE702980068406900F05F
:103A300040010020B0EB911F4BD1FFE702980068D6
:103A4000406900F010010120B0EB111F1CD1FFE70D
:103A5000029801686FF01000486102990020086325
:103A6000029A202182F83D10029981F83E000299C5
:103A7000086C0864FFE70299002081F83C00FFE72A
:103A800001208DF80F0028E0FDF710F90099401A89
:103A90000199884203D8FFE70198C8B9FFE7029966
:103AA00000200863029A202182F83D10029981F8D3
:103AB0003E000299086C40F020000864FFE702997C
:103AC000002081F83C00FFE701208DF80F0004E0A2
:103AD000AAE700208DF80F00FFE79DF80F0004B063
:103AE00080BD000080B584B0029001910092FFE794
:103AF000029800684069C1B20020B0EBD11F33D1F9
:103B0000FFE70298FFF794FC20B1FFE701208DF852
:103B10000F002DE00198013028B3FFE7FDF7C6F84C
:103B20000099401A0199884203D8FFE70198C8B963
:103B3000FFE7029900200863029A202182F83D10D5
:103B4000029981F83E000299086C40F02000086458
:103B5000FFE70299002081F83C00FFE701208DF883
:103B60000F0005E0FFE7C3E700208DF80F00FFE737
:103B70009DF80F0004B080BD80B584B040F288107D
:103B8000C2F20000019045F63861C0F60001112232
:103B90004FF6FF730293FFF79DFB0A200390FCF79B
:103BA0006DFE0198029B45F69551C0F60001472233
:103BB000FFF790FB0398FCF761FE0198029B45F626
:103BC0001861C0F600012022FFF784FB0398FCF780
:103BD00055FE0198029B45F6DC51C0F600013C22DF
:103BE000FFF778FB0398FCF749FE04B080BD0000A6
:103BF00080B592B00020119010900F900E900D9013
:103C0000FFE700200C9043F63000C4F20200016888
:103C100041F004010160006800F004000C900C9871
:103C2000FFE7FFE700200B9043F63000C4F20200EC
:103C3000016841F080010160006800F080000B9095
:103C40000B98FFE7FFE700200A9043F63000C4F22C
:103C50000200016841F001010160006800F001000C
:103C60000A900A98FFE7FFE70020099043F630002A
:103C7000C4F20200016841F002010160006800F036
:103C8000020009900998FFE740F60000C4F2020024
:103C900002900921019100220692FCF7EFFF069A9B
:103CA0000020C4F20200039030210491FCF7E6FFEB
:103CB000049940F20040C4F20200079001220592EC
:103CC000FCF7DCFF019A029805990D920E910F9175
:103CD000032110910DA90891FCF7F2FD0398DDF87E
:103CE00010C0059B069A0899CDF834C00E930F9228
:103CF0001092FCF7E5FDDDF810C0059B069A0798C9
:103D00000899CDF834C00E930F921092FCF7D8FDAD
:103D100012B080BD80B582B040F21C00C2F200003B
:103D2000019045F60001C4F20001016048F2A06173
:103D3000C0F20101416000218160C1604FF4804206
:103D4000026141618161C1610162FCF7B5FF18B197
:103D5000FFE7FCF7F3FCFFE702B080BD80B588B059
:103D60000021009107910691059104910391029120
:103D700040F27000C2F2000001900022C4F2010281
:103D8000026047224260816044F61F62C2600161A6
:103D9000416180218161FEF7D3FA18B1FFE7FCF79A
:103DA000CDFCFFE74FF48050049040F27000C2F267
:103DB000000004A9FEF746FC18B1FFE7FCF7BEFCC3
:103DC000FFE700200290039040F27000C2F2000072
:103DD00002A9FEF735FA18B1FFE7FCF7AFFCFFE7E1
:103DE00008B080BD80B588B000210191079106918F
:103DF000059104910391029140F2B800C2F20000D3
:103E00004FF0804202604722426081600122C2601E
:103E100001618161FEF794FA18B1FFE7FCF78EFCAF
:103E2000FFE74FF48050049040F2B800C2F2000067
:103E300004A9FEF707FC18B1FFE7FCF77FFCFFE7DA
:103E400000200290039040F2B800C2F2000002A9E4
:103E5000FEF7F6F918B1FFE7FCF770FCFFE708B0D2
:103E600080BD000080B582B040F20010C2F20000B8
:103E7000019041F20001C4F2010101604FF4E1310F
:103E8000416000218160C16001610C224261816159
:103E9000C161FFF70FF818B1FFE7FCF74FFCFFE730
:103EA00002B080BD80B582B040F24410C2F2000082
:103EB000019044F20041C4F2000101604FF4E1318D
:103EC000416000218160C16001610C224261816119
:103ED000C161FEF7EFFF18B1FFE7FCF72FFCFFE72A
:103EE00002B080BD80B582B040F28810C2F20000FE
:103EF000019041F20041C4F2010101604FF4E1314F
:103F0000416000218160C16001610C2242618161D8
:103F1000C161FEF7CFFF18B1FFE7FCF70FFCFFE729
:103F200002B080BDFFE7FEE7FFE7FEE788B007903D
:103F300006910592079800F0070004900498C0F1DC
:103F40000700052803D3FFE70420019004E004984C
:103F5000C0F107000190FFE7019803900498043036
:103F6000062803D8FFE70020009003E004980338F8
:103F70000090FFE70098029006980399012202FA48
:103F800001F101390840029B984005999A40013A95
:103F90001140084308B070477047000070470000A8
:103FA00080B582B0009000980138B0F1807F03D3D3
:103FB000FFE70120019019E0009801384EF214014A
:103FC000CEF2000108604FF0FF300F2101F012F92E
:103FD0004EF21801CEF20001002008604EF21002ED
:103FE000CEF20002072111600190FFE7019802B0B4
:103FF00080BD000080B5FDF72FFB80BD80B594B07B
:1040000008A83021FCF71CF90020079006900590C5
:1040100004900390FFE70020029043F64000C4F2B2
:104020000200016841F080510160006800F080509A
:1040300002900298FFE7FFE70020019047F200009E
:10404000C4F20000016841F440410160006800F4DE
:10405000404001900198FFE70220089001210B9158
:1040600010210C910E9000210F91082110914821F0
:10407000119112900420139008A8FDF771FD18B15A
:10408000FFE7FCF75BFBFFE70F20039002210491A1
:10409000002005904FF480520692079003A8FDF788
:1040A0008FFB18B1FFE7FCF749FBFFE714B080BDB9
:1040B0004EF68851CEF20001086840F470000860A6
:1040C0007047000080B584B0012202928DF80F2065
:1040D000002000900DF10F01019100F0EBFA009823
:1040E0000199029A03238DF80F3000F0E3FA04B02F
:1040F00080BD000080B582B08DF807000020ADF8CB
:1041000004009DF8070001A9022200F09BFA9DF827
:1041100004009DF8051040EA0120ADF80200BDF84A
:10412000020002B080BD000080B584B00290012280
:104130008DF8072013200DF1070100F083FA9DF898
:104140000700C007C0B1FFE71420FFF7D3FF0299B3
:1041500008801620FFF7CEFF029948801820FFF74D
:10416000C9FF029988801A20FFF7C4FF0299C8800E
:1041700001208DF80F0003E000208DF80F00FFE70D
:104180009DF80F0004B080BD80B584B040F60000FB
:10419000C4F2020001900121029100220392FCF777
:1041A0006DFD0198039A016821F0C001016001686A
:1041B00041F0400101600821FCF760FD0220009001
:1041C00001F06CF80198029A1146FCF757FD00982F
:1041D00001F064F801980299039AFCF74FFD04B0CE
:1041E00080BD000080B584B040F60000C4F202003B
:1041F00001900121029100220392FCF73FFD0198FA
:10420000029A016821F0C0010160016841F040019B
:1042100001600821FCF732FD0220009001F03EF819
:104220000198029A1146FCF729FD009801F036F832
:1042300001980299039AFCF721FD04B080BD0000AB
:1042400080B584B08DF80F0002918DF807208DF8AD
:104250000630002000908DF8050000F0EFF89DF882
:104260000F0040000130C0B200F08AF800F042F9BF
:1042700000988DF80500FFE79DF805009DF80710F0
:1042800088421FDAFFE79DF805009DF80710013905
:10429000884208D1FFE7002000F01EF802999DF83F
:1042A0000520885407E0012000F016F802999DF8D7
:1042B00005208854FFE7FFE79DF8050001308DF8E1
:1042C0000500D9E79DF80600012803D1FFE700F0BB
:1042D000E3F8FFE704B080BD80B584B08DF80F002F
:1042E00000208DF80D0040F60002C4F202021168B1
:1042F00021F0C0011160116811608DF80E00FFE718
:104300009DF80E0007282DDCFFE740F60000C4F200
:1043100002000290012101910022FCF7AFFC142061
:1043200000F0BCFF019A02981146FCF7A7FC029826
:104330009DF80D1049008DF80D100821FCF772FC56
:1043400030B1FFE79DF80D0001308DF80D00FFE75B
:10435000012000F0A3FFFFE79DF80E0001308DF86B
:104360000E00CDE79DF80F0018B9FFE7FFF73AFF01
:1043700002E0FFF709FFFFE79DF80D0004B080BDE4
:1043800080B586B08DF8170040F60000C4F2020038
:10439000016821F0C0010160016841F04001016045
:1043A000012100220492FCF769FC04988DF81600A4
:1043B000FFE79DF8160007283EDCFFE79DF8171081
:1043C0000120B0EBD11F09D1FFE740F60000C4F295
:1043D000020008210122FCF751FC08E040F6000031
:1043E000C4F2020008210022FCF748FCFFE79DF818
:1043F000170040008DF817000220039000F04EFFD8
:1044000040F60000C4F2020001900122029211461F
:10441000FCF734FC039800F041FF01980299002258
:10442000FCF72CFC039800F039FFFFE79DF816001D
:1044300001308DF81600BCE706B080BD80B586B0AF
:1044400040F60000C4F202000390016821F0C001B0
:104450000160016841F040010160082101910122E1
:104460000492FCF70BFC0398049A1146FCF706FC37
:104470000420029000F012FF019903980022059297
:10448000FCF7FCFB029800F009FF03980499059AD9
:10449000FCF7F4FB06B080BD80B586B040F60000A6
:1044A000C4F202000290016821F0C00101600168BD
:1044B00041F0400101600121049100220192FCF7CA
:1044C000DDFB019A029808210391FCF7D7FB042039
:1044D000059000F0E3FE0298049A1146FCF7CEFB2B
:1044E00002980399049AFCF7C9FB059800F0D6FEE0
:1044F00006B080BD80B586B00020049040F6000074
:10450000C4F202000290016821F0C001016001685C
:104510000160082101220392FCF7B0FB039800F030
:10452000BDFE0298039A1146FCF7A8FB039800F021
:10453000B5FEFFE740F60000C4F202000821FCF7D8
:1045400071FB70B1FFE70498013004900498FB28D8
:1045500006D3FFE7FFF7A0FF01208DF817000DE05D
:10456000E8E740F60000C4F20200012100220192B7
:10457000FCF784FB01988DF81700FFE79DF8170002
:1045800006B080BD80B584B08DF80F0002918DF823
:1045900007208DF80630002000908DF80500FFF709
:1045A0004DFF9DF80F004000C0B2FFF7E9FEFFF796
:1045B000A1FF00988DF80500FFE79DF805009DF824
:1045C000071088420FDAFFE702989DF80510405C5B
:1045D000FFF7D6FEFFF78EFFFFE79DF805000130DD
:1045E0008DF80500E9E79DF80600012803D1FFE7F3
:1045F000FFF752FFFFE704B080BD000080B582B036
:1046000000208DF8060012200DF10601012200F0B5
:1046100019F89DF8060044280CD1FFE79C2000F013
:104620003DF8002000F02EF8FFF74CFD01208DF83A
:10463000070003E000208DF80700FFE79DF8070062
:1046400002B080BD80B586B08DF8170004918DF85A
:104650000F209DF8170040F080008DF817002920EA
:1046600001900DF11701012202920023FFF78AFF4A
:104670000198029B04999DF80F20FFF7E1FD06B019
:1046800080BD000080B582B08DF807000F200DF1CD
:104690000701012200F00EF802B080BD80B582B0A3
:1046A0008DF807000DF107010122104600F002F815
:1046B00002B080BD80B586B08DF8170004918DF8EA
:1046C0000F200020ADF80C00029001908DF803003F
:1046D0009DF8170040F080008DF8040001208DF84F
:1046E0000300FFE79DF803009DF80F1088420FDCE0
:1046F000FFE704989DF80320104410F8010C01A96D
:104700008854FFE79DF8030001308DF80300E9E7C6
:104710009DF80F000130C2B2292001A90123FFF743
:1047200031FF06B080BD000080B540F27000C2F2DB
:104730000000FEF74DF880BD83B002900191029811
:104740000068009002980021C4F2010188421DD047
:10475000FFE70298B0F1804F18D0FFE7029840F2CF
:104760000041C4F20001884210D0FFE7029840F6F1
:104770000001C4F20001884208D0FFE7029840F629
:104780000041C4F2000188420AD1FFE7009820F0FE
:104790007000009001984168009808430090FFE77E
:1047A00002980021C4F20101884235D0FFE7029847
:1047B000B0F1804F30D0FFE7029840F20041C4F2E0
:1047C0000001884228D0FFE7029840F60001C4F2B9
:1047D0000001884220D0FFE7029840F60041C4F271
:1047E0000001884218D0FFE7029844F20001C4F2A9
:1047F0000101884210D0FFE7029844F20041C4F260
:104800000101884208D0FFE7029844F60001C4F293
:10481000010188420AD1FFE7009820F4407000901F
:104820000198C168009808430090FFE7009820F0C5
:104830008000019949690843009000980299086036
:10484000019880680299C86201980068029988629C
:1048500002980021C4F20101884205D1FFE70198C6
:10486000006902990863FFE702990120486103B0DB
:104870007047000085B00490039102920193049860
:1048800080680090009820F47F400090039802997F
:10489000019A41EA022101430098084300900098E0
:1048A0000499886005B0704783B002900191029826
:1048B00080680090009820F07000009001980099A6
:1048C000084340F00700009000980299886003B008
:1048D0007047000085B00490039102920498006A2A
:1048E00000900499086A20F0010008620498806929
:1048F0000190019820F0F00001900299019840EA9F
:1049000001100190009820F00A000090039900988F
:1049100008430090019804998861009804990862FE
:1049200005B0704785B00490039102920499086A1B
:1049300020F0100008620498806901900498006AD1
:104940000090019820F4704001900299019840EA8B
:1049500001300190009820F0A00000900399009889
:1049600040EA011000900198049988610098049928
:10497000086205B07047000080B582B001900198D0
:10498000806B009000990020C8850099C884009829
:10499000FEF77CF802B080BD84B00390FFE7FFE72C
:1049A0000398006850E8030F20F490700290FFE72E
:1049B00002990398026842E803100028F0D1FFE74B
:1049C000FFE7FFE7FFE70398006850E8050F20F0D6
:1049D00001000190FFE701990398026842E8051081
:1049E0000028F0D1FFE7FFE70398006B012814D1FE
:1049F000FFE7FFE7FFE70398006850E8030F20F0A8
:104A000010000090FFE700990398026842E8031045
:104A10000028F0D1FFE7FFE7FFE70399202081F8A6
:104A20003E0003990020086304B0704780B582B04F
:104A3000019001980168C86820F04000C8600199A1
:104A4000202081F83D000198FEF7ECFC002002B028
:104A500080BD000080B586B00490049890F83E00B8
:104A6000222840F0A180FFE704988068B0F5805FBD
:104A700015D1FFE70498006988B9FFE7002003908B
:104A80000498806A02900498006840686FF35F2081
:104A9000029908800499886A0230886225E00498A7
:104AA000806A03900020029004988068B0F5805FCF
:104AB00008D0FFE70498806850B9FFE704980069C0
:104AC00030B9FFE70498006840680399087007E070
:104AD00004980068406800F07F0003990870FFE7C1
:104AE0000499886A01308862FFE70499C88D01380B
:104AF000C8850004002853D1FFE704980168C868FE
:104B000020F02000C86004980168C86820F4807014
:104B1000C86004980168486920F001004861049960
:104B2000202081F83E000498006B012830D1FFE777
:104B3000049900200863FFE7FFE70498006850E845
:104B4000030F20F010000190FFE70199049802681C
:104B500042E803100028F0D1FFE7FFE7049800685F
:104B60000068C00600280ED5FFE7FFE70020009090
:104B700004980068006800900498006840680090FD
:104B80000098FFE7FFE70498818DFDF779FF03E0C8
:104B90000498FEF7F1FAFFE700208DF8170007E010
:104BA00000208DF8170003E002208DF81700FFE7C2
:104BB0009DF8170006B080BD80B586B005900598B9
:104BC0000068006920F44050059A1168D2681043CB
:104BD0000861059988680B694A69C96918431043D7
:104BE0000843049005980068C06849F20C61884346
:104BF0000499084305990968C860059800684069E8
:104C000020F44070059A1168926910434861059834
:104C1000006841F20001C4F20101884209D0FFE7B7
:104C20000598006841F20041C4F20101884204D1B4
:104C3000FFE7FCF70FFF039003E0FCF7F9FE03909A
:104C4000FFE70598C069B0F5004F29D1FFE7039849
:104C50001921A0FB0101059A1368029353685A00B9
:104C6000DB0FFBF7B5FA0299864648F21F53C5F2EF
:104C7000EB13AEFB0320420910014FF0640C02FB62
:104C80001CEC322202EBCC02A2FB0332F82303EA33
:104C9000521300EB4300C2F342121044886026E036
:104CA00003981921A0FB0101059A13680193536829
:104CB0009A009B0FFBF78CFA0199844648F21F5229
:104CC000C5F2EB12ACFB02304309642003FB10CCAD
:104CD000322000EB0C10A0FB0202F02000EA521080
:104CE00000EB0310C2F3431210448860FFE706B0E4
:104CF00080BD000083B002900191ADF802200198C0
:104D000002998862BDF8020002998885BDF8020008
:104D10000299C8850299002008640299222081F82E
:104D20003E00FFE70299002081F83C00FFE702986F
:104D3000006938B1FFE702980168C86840F48070E4
:104D4000C860FFE702980168486940F001004861C7
:104D500002980168C86840F02000C860002003B0D5
:104D60007047000083B00190019890F83D00212821
:104D70003AD1FFE701988068B0F5805F13D1FFE773
:104D80000198006978B9FFE70198006A00900098DF
:104D900000886FF35F200199096848600199086AEB
:104DA0000230086208E0019A106A411C1162007822
:104DB000019909684860FFE70199C88C0138C884E7
:104DC000000468B9FFE701980168C86820F0800016
:104DD000C86001980168C86840F04000C860FFE7FB
:104DE00000208DF80B0003E002208DF80B00FFE798
:104DF0009DF80B0003B0704780B588B0DDF828C07F
:104E0000069005918DF813200393FFE7069800683C
:104E1000006805990840401AB0FA80F040099DF8F2
:104E20001310884249D1FFE70A980130002843D087
:104E3000FFE70A9840B1FFE7FBF738FF0399401AF4
:104E40000A99884237D9FFE7FFE7FFE7069800682D
:104E500050E8030F20F4D0700290FFE70299069803
:104E6000026842E803100028F0D1FFE7FFE7FFE700
:104E7000FFE70698006850E8050F20F00100019058
:104E8000FFE701990698026842E805100028F0D172
:104E9000FFE7FFE70699202081F83D00069981F899
:104EA0003E00FFE70699002081F83C00FFE7032061
:104EB0008DF81F0005E0FFE7A8E700208DF81F0030
:104EC000FFE79DF81F0008B080BD000080B540F2EC
:104ED0000010C2F20000FDF7DDFD80BD80B540F29C
:104EE0008810C2F20000FDF7D5FD80BDFFE7FEE7A8
:104EF00080B582B000200DF1070100F015F920B156
:104F0000FFE700208DF80700FFE79DF8070002B0DB
:104F100080BD000080B582B04D200DF1070100F08A
:104F200003F9FFE79DF80700C00748B9FFE74D20E8
:104F30000DF1070100F0F8F80A20FBF79FFCF1E7FC
:104F400001208DF806009DF80610182000F010F9D9
:104F50004F200DF1070100F0E7F8FFE79DF807008B
:104F60004007002809D4FFE74F200DF1070100F0AA
:104F7000DBF86420FBF782FCF0E762200DF106010C
:104F800000F0D2F81520072100F0F2F89DF8060095
:104F900002B080BD80B58EB000208DF8370016209D
:104FA0000DF1370100F0C0F89DF83700012840F0FE
:104FB000B980FFE740F207200121079100F0D8F8FF
:104FC00007994FF4027000F0D3F8962000210C915D
:104FD00000F0CEF89720FD2100F0CAF80799E320F1
:104FE00000F0C6F8E4200321029100F0C1F8E520AA
:104FF0000221019100F0BCF80799E62000F0B8F812
:105000000299E72000F0B4F80199F52000F0B0F81B
:10501000D9200521049100F0ABF8DB20CE2100F06F
:10502000A7F80299DC2000F0A3F8DD20F82100F0B9
:105030009FF80C999F2000F09BF8A3203C2103913E
:1050400000F096F80C99B72000F092F80399BB2075
:1050500000F08EF8B2200921089100F089F8089933
:10506000CA2000F085F807994FF4CC7000F080F862
:105070004FF4D870172100F07BF80C9940F2AD1076
:1050800000F076F80499FF20069000F071F804997A
:105090004FF4807000F06CF8049940F2991000F021
:1050A00067F84FF4D3701B21099100F061F84FF4B9
:1050B000D6703E210B9100F05BF840F2A7101F2143
:1050C00000F056F80C993020059000F051F81120AE
:1050D000102100F04DF805994FF4857000F048F864
:1050E0003F20462100F044F8069931200A9000F054
:1050F0003FF84020632100F03BF807992E2000F094
:1051000037F80899099800F033F80A990B9800F0DD
:105110002FF81420242100F02BF80C99162000F011
:1051200027F8FFE70EB080BD80B586B0ADF8160059
:1051300004910020ADF80E005320ADF80E00BDF82C
:105140000E10BDF8162004986B464FF01E0CC3F8E5
:1051500008C04FF0010CC3F804C0186040F21C00F6
:10516000C2F200000223FBF7F9FE06B080BD00008A
:1051700080B586B0ADF816008DF815100020ADF89A
:1051800012005220ADF81200BDF81210BDF8162022
:105190006B461E209860012058600DF115001860C4
:1051A00040F21C00C2F200000223FCF7EDF806B04A
:1051B00080BD000081B08DF803009DF90300002838
:1051C0000ED4FFE79DF9031001F01F02012090406B
:1051D0004A094EF20011CEF2000141F82200FFE729
:1051E00001B070474EF60C50CEF200000068C0F3DC
:1051F0000220704782B08DF8070000919DF90700EA
:1052000000280AD4FFE7009800019DF907104EF22C
:105210000042CEF2000288540BE0009800019DF895
:10522000071001F00F014EF61452CEF2000288541E
:10523000FFE702B07047000083B00290029800F0D0
:10524000070000904EF60C51CEF200010868019064
:1052500001984FF6FF02104001900198009A40EA31
:1052600002200022C0F2FA52104301900198086017
:1052700003B0704780B50020C4F202001021002264
:10528000FBF7FCFC80BD000080B50020C4F20200EA
:1052900010210122FBF7F2FC80BD000080B582B036
:1052A000ADF80600BDF806104FF6FA70401AADF8DA
:1052B000040040F2B800C2F200000090FDF7D0F800
:1052C0000099BDF8040009684862FFE7BDF80400D2
:1052D0004FF6F971884209DCFFE740F2B800C2F2EC
:1052E00000000068406AADF80400EFE740F2B80043
:1052F000C2F20000FDF782F902B080BD80B584B033
:105300000390029103988DF8070040F20010C2F25A
:1053100000000DF1070101220223FDF7DBFF9DF8DC
:10532000070004B080BD000080B588B00020079061
:10533000FCF7A0F9FEF762FEFEF75AFCFEF792FDBD
:10534000FEF7E8FCFEF70AFDFEF7ACFDFEF74AFDAE
:10535000FEF7C8FD40F27000C2F20000FDF7E4F86D
:1053600040F20010C2F2000040F21801C2F2000147
:1053700001220692FDF7C4FE069A40F28810C2F29E
:10538000000040F21901C2F20001FDF7B9FEFFF77B
:10539000AFFDB42803D1FFE7FFF7FCFDFFE7FFE710
:1053A000FFF72CF938B9FFE745F67A50C0F6000050
:1053B00000F05EF8F4E7FFE740F21400C2F20000EC
:1053C0000068D0B9FFE71420FBF758FAFEF7D4FBCA
:1053D00040F21400C2F2000001220592026040F285
:1053E0000040C4F2020004901021FBF747FC04982F
:1053F000059A2021FBF742FCFFE7FFF78BFD40F207
:105400001001C2F200010391087040F2CC10C2F208
:1054100000000290FEF788FE0399029809784288FE
:105420008388C088EC46CCF8000045F64760C0F69B
:10543000000000F01DF80020C4F202002021FBF75C
:1054400009FC40F2DC50FBF719FA03980078632856
:105450000CDCFFE7FFF718FF4FF49670FBF70EFA2E
:10546000FFF708FF6420FBF709FAFFE7A4E7000055
:105470000FB4054B10B503A9044A029800F0DAF8FE
:1054800010BC5DF814FB0000FD5200080000002075
:1054900002E008C8121F08C1002AFAD170477047FD
:1054A000002001E001C1121F002AFBD1704700005B
:1054B0002DE9FF5F82B00021DDE90430020DDDF847
:1054C00040B0034318D044F61050A2F2FF324243DA
:1054D0001514119801281FD0A5EB0B00401C5FEAA2
:1054E000000A4FF000064E4FDFF83891B0465046A4
:1054F00015D5CAF1000413E0119801244AA301282C
:1055000001D16FEA0B010298119AC0E90031C0E99C
:10551000024206B0BDE8F09FCBF10000DFE7044691
:105520000021404A491842EB0450CDE9001012E036
:10553000E00707D032463B4640464946FAF732FF7D
:105540008046894632463B4610461946FAF72AFFFE
:1055500006460F466410002CEAD1DDE90401DDE9BE
:105560000023BAF1000F06DAFAF71CFF42464B4659
:10557000FAF718FF05E0FBF72BF842464B46FBF71E
:1055800027F804460E460022284BFBF7A9F803D85B
:105590004FF0FF30014607E00022254B2046314600
:1055A000FAF759FEFBF783F8102409E0002C0ADB18
:1055B0000A220023FAF70CFE039B30321A55641EB0
:1055C00050EA0102F2D1641C039AC4F1110314449D
:1055D000119A012A03D0012208430DD10AE00843A1
:1055E00004D000204FF0110B119072E7A3EB0B05D4
:1055F0006D1E0DE05B4504DD4FF0000205F1010575
:1056000004E003DA4FF00002A5F10105002AECD016
:1056100002981199C0E90231C0E9004579E700001C
:10562000000014400000F03F300000000000F04394
:105630000000E03F2DE9FF4F95B09B4689460646A6
:1056400000250FE2252877D100242746F84A0121BA
:10565000059400E0044316F8013F203B01FA03F0F3
:105660001042F7D130782A2811D06FF02F0330780C
:10567000A0F13002092A16D8059A44F0020402EB80
:10568000820203EB42021044761C0590EFE759F8C2
:10569000042B0592002A03DA504244F4005405908A
:1056A00044F00204761C30782E2816D116F8010F2B
:1056B00044F004042A280DD06FF02F023078A0F1B6
:1056C0003003092B09D807EB870302EB4303C71804
:1056D000761CF3E759F8047B761C30786C280FD0E1
:1056E00006DC4C2817D068280DD06A2814D104E0B5
:1056F000742810D07A280FD10DE044F400140AE089
:1057000044F4801401E044F440147278824202D1DF
:1057100004F58014761C761C307866280BD013DCD8
:10572000582877D009DC002875D04528F6D04628BF
:10573000F4D047281AD19DE118E0632835D06428B9
:1057400079D0652812D195E1702873D008DC6728DC
:10575000F1D069286FD06E280DD06F2806D1B5E042
:1057600073282CD0752875D0782874D05A4617998C
:1057700090476D1C75E1C4F30250022809D003283C
:105780000DD0D9F8001004280DD00D6009F10409DE
:1057900067E1D9F80010EA17C1E90052F6E7D9F835
:1057A00000100D80F2E70D70F0E719F8041B8DF87A
:1057B000001000208DF80100EA46012003E059F8AE
:1057C00004AB4FF0FF3061074FF0000102D40DE051
:1057D00008F101018846B9420FDA8045F8DB1AF872
:1057E00008100029F4D108E008F10101884681423F
:1057F000FADB1AF808100029F6D105985B46A0EBF1
:10580000080721463846179A00F094FA284400EB1E
:10581000080507E04DE029E10DE01AF8010B5A46B2
:1058200017999047B8F10108F7D25B4621463846F0
:10583000179A13E142E00A220092C4F302524FF099
:10584000000A022A08D059F804CB032A4FEAEC7167
:105850000AD00DE029E02AE009F1070121F0070252
:10586000F2E802C1914609E00FFA8CFC4FEAEC71B4
:10587000042A03D14FFA8CFC4FEAEC71002907DAB5
:105880000A460021DCF1000C61EB02012D2202E04E
:10589000220504D52B228DF80420012203E0E20723
:1058A00001D02022F7E7904659E00A2102E01022B9
:1058B0000DE010214FF0000A00910BE010224FF094
:1058C000000A44F004040827009203E008224FF085
:1058D000000A0092C4F30252022A05D059F804CB00
:1058E0000021032A08D009E009F1070121F007028D
:1058F000F2E802C1914605E01FFA8CFC042A01D1AE
:105900000CF0FF0C4FF00008220728D5702806D0B5
:10591000009B83F0100353EA0A0305D00EE04022F7
:105920008DF80420012208E05CEA010206D0302252
:105930008DF804208DF8050002229046009B83F02C
:10594000080353EA0A030AD15CEA010201D16207A3
:1059500005D530228DF804204FF001087F1E58280D
:1059600004D034A003900EA802900DE036A0F9E711
:1059700053466046009AFAF72BFC84460398825CF3
:105980000298401E029002705CEA0100F0D1029879
:1059900006A9081A00F1200A600702D524F4803411
:1059A00000E00127574502DDA7EB0A0000E00020D8
:1059B00000EB0A01009005984144401A0590E0036D
:1059C00006D45B462146179A059800F0B3F90544C2
:1059D000002706E001A85A46C05D179990476D1C44
:1059E0007F1C4745F6DBE0030CD55B462146179A42
:1059F000059800F09FF9054404E030205A461799B5
:105A000090476D1C0099481E00900029F5DC08E0C5
:105A1000029802995A460078491C029117999047BA
:105A20006D1CBAF10001AAF1010AF1DC65E1000088
:105A30000928010030313233343536373839616264
:105A40006364656600000000303132333435363728
:105A500038394142434445460000000000F058F9FF
:105A60000544761C307800287FF4ECAD19B0284648
:105A7000BDE8F08F620700D4062709F1070222F083
:105A8000070CFCE80223E14603F000485FEA080C3B
:105A900002D00FF2702C0DE05FEA045C02D50FF229
:105AA000682C07E05FEAC47C02D00FF2602C01E0B2
:105AB000AFF2700C4FF0FF3823F00043CDF850C028
:105AC00065280CD006DC452809D046281DD047287B
:105AD0003DD13DE0662818D067287ED138E000210E
